{
  "contractName": "HopeToken",
  "abi": [
    {
      "inputs": [
        {
          "internalType": "address",
          "name": "initialAdmin",
          "type": "address"
        }
      ],
      "stateMutability": "nonpayable",
      "type": "constructor"
    },
    {
      "anonymous": false,
      "inputs": [
        {
          "indexed": true,
          "internalType": "address",
          "name": "owner",
          "type": "address"
        },
        {
          "indexed": true,
          "internalType": "address",
          "name": "spender",
          "type": "address"
        },
        {
          "indexed": false,
          "internalType": "uint256",
          "name": "value",
          "type": "uint256"
        }
      ],
      "name": "Approval",
      "type": "event"
    },
    {
      "anonymous": false,
      "inputs": [
        {
          "indexed": true,
          "internalType": "bytes32",
          "name": "role",
          "type": "bytes32"
        },
        {
          "indexed": true,
          "internalType": "bytes32",
          "name": "previousAdminRole",
          "type": "bytes32"
        },
        {
          "indexed": true,
          "internalType": "bytes32",
          "name": "newAdminRole",
          "type": "bytes32"
        }
      ],
      "name": "RoleAdminChanged",
      "type": "event"
    },
    {
      "anonymous": false,
      "inputs": [
        {
          "indexed": true,
          "internalType": "bytes32",
          "name": "role",
          "type": "bytes32"
        },
        {
          "indexed": true,
          "internalType": "address",
          "name": "account",
          "type": "address"
        },
        {
          "indexed": true,
          "internalType": "address",
          "name": "sender",
          "type": "address"
        }
      ],
      "name": "RoleGranted",
      "type": "event"
    },
    {
      "anonymous": false,
      "inputs": [
        {
          "indexed": true,
          "internalType": "bytes32",
          "name": "role",
          "type": "bytes32"
        },
        {
          "indexed": true,
          "internalType": "address",
          "name": "account",
          "type": "address"
        },
        {
          "indexed": true,
          "internalType": "address",
          "name": "sender",
          "type": "address"
        }
      ],
      "name": "RoleRevoked",
      "type": "event"
    },
    {
      "anonymous": false,
      "inputs": [
        {
          "indexed": true,
          "internalType": "address",
          "name": "from",
          "type": "address"
        },
        {
          "indexed": true,
          "internalType": "address",
          "name": "to",
          "type": "address"
        },
        {
          "indexed": false,
          "internalType": "uint256",
          "name": "value",
          "type": "uint256"
        }
      ],
      "name": "Transfer",
      "type": "event"
    },
    {
      "inputs": [],
      "name": "BURNER_ROLE",
      "outputs": [
        {
          "internalType": "bytes32",
          "name": "",
          "type": "bytes32"
        }
      ],
      "stateMutability": "view",
      "type": "function",
      "constant": true
    },
    {
      "inputs": [],
      "name": "DEFAULT_ADMIN_ROLE",
      "outputs": [
        {
          "internalType": "bytes32",
          "name": "",
          "type": "bytes32"
        }
      ],
      "stateMutability": "view",
      "type": "function",
      "constant": true
    },
    {
      "inputs": [],
      "name": "MINTER_ROLE",
      "outputs": [
        {
          "internalType": "bytes32",
          "name": "",
          "type": "bytes32"
        }
      ],
      "stateMutability": "view",
      "type": "function",
      "constant": true
    },
    {
      "inputs": [
        {
          "internalType": "address",
          "name": "owner",
          "type": "address"
        },
        {
          "internalType": "address",
          "name": "spender",
          "type": "address"
        }
      ],
      "name": "allowance",
      "outputs": [
        {
          "internalType": "uint256",
          "name": "",
          "type": "uint256"
        }
      ],
      "stateMutability": "view",
      "type": "function",
      "constant": true
    },
    {
      "inputs": [
        {
          "internalType": "address",
          "name": "spender",
          "type": "address"
        },
        {
          "internalType": "uint256",
          "name": "amount",
          "type": "uint256"
        }
      ],
      "name": "approve",
      "outputs": [
        {
          "internalType": "bool",
          "name": "",
          "type": "bool"
        }
      ],
      "stateMutability": "nonpayable",
      "type": "function"
    },
    {
      "inputs": [
        {
          "internalType": "address",
          "name": "account",
          "type": "address"
        }
      ],
      "name": "balanceOf",
      "outputs": [
        {
          "internalType": "uint256",
          "name": "",
          "type": "uint256"
        }
      ],
      "stateMutability": "view",
      "type": "function",
      "constant": true
    },
    {
      "inputs": [],
      "name": "decimals",
      "outputs": [
        {
          "internalType": "uint8",
          "name": "",
          "type": "uint8"
        }
      ],
      "stateMutability": "view",
      "type": "function",
      "constant": true
    },
    {
      "inputs": [
        {
          "internalType": "address",
          "name": "spender",
          "type": "address"
        },
        {
          "internalType": "uint256",
          "name": "subtractedValue",
          "type": "uint256"
        }
      ],
      "name": "decreaseAllowance",
      "outputs": [
        {
          "internalType": "bool",
          "name": "",
          "type": "bool"
        }
      ],
      "stateMutability": "nonpayable",
      "type": "function"
    },
    {
      "inputs": [
        {
          "internalType": "bytes32",
          "name": "role",
          "type": "bytes32"
        }
      ],
      "name": "getRoleAdmin",
      "outputs": [
        {
          "internalType": "bytes32",
          "name": "",
          "type": "bytes32"
        }
      ],
      "stateMutability": "view",
      "type": "function",
      "constant": true
    },
    {
      "inputs": [
        {
          "internalType": "bytes32",
          "name": "role",
          "type": "bytes32"
        },
        {
          "internalType": "address",
          "name": "account",
          "type": "address"
        }
      ],
      "name": "grantRole",
      "outputs": [],
      "stateMutability": "nonpayable",
      "type": "function"
    },
    {
      "inputs": [
        {
          "internalType": "bytes32",
          "name": "role",
          "type": "bytes32"
        },
        {
          "internalType": "address",
          "name": "account",
          "type": "address"
        }
      ],
      "name": "hasRole",
      "outputs": [
        {
          "internalType": "bool",
          "name": "",
          "type": "bool"
        }
      ],
      "stateMutability": "view",
      "type": "function",
      "constant": true
    },
    {
      "inputs": [
        {
          "internalType": "address",
          "name": "spender",
          "type": "address"
        },
        {
          "internalType": "uint256",
          "name": "addedValue",
          "type": "uint256"
        }
      ],
      "name": "increaseAllowance",
      "outputs": [
        {
          "internalType": "bool",
          "name": "",
          "type": "bool"
        }
      ],
      "stateMutability": "nonpayable",
      "type": "function"
    },
    {
      "inputs": [],
      "name": "name",
      "outputs": [
        {
          "internalType": "string",
          "name": "",
          "type": "string"
        }
      ],
      "stateMutability": "view",
      "type": "function",
      "constant": true
    },
    {
      "inputs": [
        {
          "internalType": "bytes32",
          "name": "role",
          "type": "bytes32"
        },
        {
          "internalType": "address",
          "name": "account",
          "type": "address"
        }
      ],
      "name": "renounceRole",
      "outputs": [],
      "stateMutability": "nonpayable",
      "type": "function"
    },
    {
      "inputs": [
        {
          "internalType": "bytes32",
          "name": "role",
          "type": "bytes32"
        },
        {
          "internalType": "address",
          "name": "account",
          "type": "address"
        }
      ],
      "name": "revokeRole",
      "outputs": [],
      "stateMutability": "nonpayable",
      "type": "function"
    },
    {
      "inputs": [
        {
          "internalType": "bytes4",
          "name": "interfaceId",
          "type": "bytes4"
        }
      ],
      "name": "supportsInterface",
      "outputs": [
        {
          "internalType": "bool",
          "name": "",
          "type": "bool"
        }
      ],
      "stateMutability": "view",
      "type": "function",
      "constant": true
    },
    {
      "inputs": [],
      "name": "symbol",
      "outputs": [
        {
          "internalType": "string",
          "name": "",
          "type": "string"
        }
      ],
      "stateMutability": "view",
      "type": "function",
      "constant": true
    },
    {
      "inputs": [],
      "name": "totalSupply",
      "outputs": [
        {
          "internalType": "uint256",
          "name": "",
          "type": "uint256"
        }
      ],
      "stateMutability": "view",
      "type": "function",
      "constant": true
    },
    {
      "inputs": [
        {
          "internalType": "address",
          "name": "to",
          "type": "address"
        },
        {
          "internalType": "uint256",
          "name": "amount",
          "type": "uint256"
        }
      ],
      "name": "transfer",
      "outputs": [
        {
          "internalType": "bool",
          "name": "",
          "type": "bool"
        }
      ],
      "stateMutability": "nonpayable",
      "type": "function"
    },
    {
      "inputs": [
        {
          "internalType": "address",
          "name": "from",
          "type": "address"
        },
        {
          "internalType": "address",
          "name": "to",
          "type": "address"
        },
        {
          "internalType": "uint256",
          "name": "amount",
          "type": "uint256"
        }
      ],
      "name": "transferFrom",
      "outputs": [
        {
          "internalType": "bool",
          "name": "",
          "type": "bool"
        }
      ],
      "stateMutability": "nonpayable",
      "type": "function"
    },
    {
      "inputs": [
        {
          "internalType": "address",
          "name": "to",
          "type": "address"
        },
        {
          "internalType": "uint256",
          "name": "amount",
          "type": "uint256"
        }
      ],
      "name": "mint",
      "outputs": [],
      "stateMutability": "nonpayable",
      "type": "function"
    },
    {
      "inputs": [
        {
          "internalType": "address",
          "name": "from",
          "type": "address"
        },
        {
          "internalType": "uint256",
          "name": "amount",
          "type": "uint256"
        }
      ],
      "name": "burnForRedemption",
      "outputs": [],
      "stateMutability": "nonpayable",
      "type": "function"
    },
    {
      "inputs": [
        {
          "internalType": "address",
          "name": "account",
          "type": "address"
        }
      ],
      "name": "addMinter",
      "outputs": [],
      "stateMutability": "nonpayable",
      "type": "function"
    },
    {
      "inputs": [
        {
          "internalType": "address",
          "name": "account",
          "type": "address"
        }
      ],
      "name": "removeMinter",
      "outputs": [],
      "stateMutability": "nonpayable",
      "type": "function"
    },
    {
      "inputs": [
        {
          "internalType": "address",
          "name": "account",
          "type": "address"
        }
      ],
      "name": "addBurner",
      "outputs": [],
      "stateMutability": "nonpayable",
      "type": "function"
    },
    {
      "inputs": [
        {
          "internalType": "address",
          "name": "account",
          "type": "address"
        }
      ],
      "name": "removeBurner",
      "outputs": [],
      "stateMutability": "nonpayable",
      "type": "function"
    }
  ],
  "bytecode": "0x608034620004a557601f1990601f62001e3238819003828101851684019392916001600160401b039182861185871017620004aa5780859260409788528339602094859181010312620004a557516001600160a01b0381169290839003620004a5576200006b620004c0565b91600a8352692437b832902a37b5b2b760b11b858401526200008c620004c0565b9660049283895263484f504560e01b878a0152845191838311620003a9576003928354966001978881811c911680156200049a575b8b82101462000485579081858493116200042f575b508a90858311600114620003ca57600092620003be575b505060001982861b1c191690871b1783555b8951938411620003a95784548681811c911680156200039e575b8982101462000389578281116200033e575b5087918411600114620002d5575082939495969798600093620002c9575b505082851b92600019911b1c19161790555b600080526005928381528460002083600052815260ff856000205416156200028d575b7f9f2df0fed2c77648de5860a4cc508cd0818c85b8b8a1ab4ceeef8d981c8956a6806000528482528560002084600052825260ff8660002054161562000250575b507f3c11d16cbaffd01df69ce1c404f6340ee057498f5f00246190ea54220576a84893846000528082528560002084600052825260ff8660002054161562000211575b85516119319081620004e18239f35b84600052815284600020908360005252836000209060ff19825416179055339160008051602062001e12833981519152600080a4388080808062000202565b8060005284825285600020846000528252856000208360ff1982541617905583339160008051602062001e12833981519152600080a438620001bf565b6000805283815284600020836000528152846000208260ff198254161790553383600060008051602062001e128339815191528180a46200017e565b01519150388062000149565b60008581528881209392918516905b81811062000328575099848798999a9b979697106200030d575b50505050811b0190556200015b565b01519060f884600019921b161c1916905538808080620002fe565b8b830151855593870193918901918901620002e4565b85600052886000208380870160051c8201928b88106200037f575b0160051c019087905b828110620003725750506200012b565b6000815501879062000362565b9250819262000359565b602286634e487b7160e01b6000525260246000fd5b90607f169062000119565b604185634e487b7160e01b6000525260246000fd5b015190503880620000ed565b90848a941691876000528c600020928d6000905b828210620004175750508411620003fe575b505050811b018355620000ff565b015160001983881b60f8161c19169055388080620003f0565b8385015186558d979095019493840193018e620003de565b909150856000528a6000208580850160051c8201928d86106200047b575b918b91869594930160051c01915b8281106200046b575050620000d6565b600081558594508b91016200045b565b925081926200044d565b602288634e487b7160e01b6000525260246000fd5b90607f1690620000c1565b600080fd5b634e487b7160e01b600052604160045260246000fd5b60408051919082016001600160401b03811183821017620004aa5760405256fe608060408181526004918236101561001657600080fd5b600092833560e01c91826301ffc9a714610f71575081630284685814610f2557816306fdde0314610e30578163095ea7b314610e0657816318160ddd14610de757816323b872dd14610d1d578163248a9ca314610cf2578163282c51f314610cc95781632f2ff15d14610c1c5781633092afd514610b5f578163313ce56714610b4357816336568abe14610ab15781633950935114610a6157816340c10f191461088b57816370a082311461085457816391d148541461080d57816395d89b411461070a578163983b2d56146106be578163a217fddf146106a3578163a457c2d7146105fb578163a9059cbb146105ca578163d5391393146105a1578163d547741f14610562578163db6b1b4f1461025257508063dd62ed3e1461020a5763f44637ba1461014357600080fd5b3461020657602090816003193601126102025761015e610fc4565b90610167611044565b6000805160206118bc833981519152928385526005815261018d6001838720015461120b565b838552600581528185206001600160a01b039093168086529281528185205460ff16156101b8578480f35b8385526005815281852083865290528320805460ff1916600117905533917f2f8788117e7eff1d82e926ec794901d17c78024a50270940304540a733656f0d8480a4388080808480f35b8280fd5b5080fd5b503461020657806003193601126102065780602092610227610fc4565b61022f610fdf565b6001600160a01b0391821683526001865283832091168252845220549051908152f35b8391503461020657826003193601126102065761026d610fc4565b926024908135916000805160206118bc8339815191529586865260209660058852838720338852885260ff8488205416156103a057506001600160a01b031693841561035657848652858752828620549184831061030957505091849591817fddf252ad1be2c89b69c2b068fc378daa952ba7f163c4a11628f55a4df523b3ef948688528785520381872055816002540360025551908152a380f35b835162461bcd60e51b81529182018890526022908201527f45524332303a206275726e20616d6f756e7420657863656564732062616c616e604482015261636560f01b6064820152608490fd5b60216084928885519362461bcd60e51b85528401528201527f45524332303a206275726e2066726f6d20746865207a65726f206164647265736044820152607360f81b6064820152fd5b8588888587946103af3361152b565b90918651926103bd84611315565b60428452858401946060368737845115610550576030865384519060019182101561053e5790607860218701536041915b8183116104d557505050610494575061049093869361047c9361046d6048946104449a519a8576020b1b1b2b9b9a1b7b73a3937b61d1030b1b1b7bab73a1604d1b8d978801528251928391603789019101610ff5565b8401917001034b99036b4b9b9b4b733903937b6329607d1b603784015251809386840190610ff5565b01036028810187520185611347565b5162461bcd60e51b81529283928301611018565b0390fd5b9250505081606494519362461bcd60e51b85528401528201527f537472696e67733a20686578206c656e67746820696e73756666696369656e746044820152fd5b909192600f8116601081101561052c576f181899199a1a9b1b9c1cb0b131b232b360811b901a6105058589611504565b53891c92801561051a576000190191906103ee565b634e487b7160e01b825260118a528482fd5b634e487b7160e01b835260328b528583fd5b634e487b7160e01b8152603289528390fd5b634e487b7160e01b8152603288529050fd5b9190503461020257806003193601126102025761059e91356105996001610587610fdf565b9383875260056020528620015461120b565b611369565b80f35b505034610206578160031936011261020657602090516000805160206118dc8339815191528152f35b5050346102065780600319360112610206576020906105f46105ea610fc4565b602435903361163a565b5160018152f35b905082346106a057826003193601126106a057610616610fc4565b918360243592338152600160205281812060018060a01b038616825260205220549082821061064f576020856105f48585038733611402565b608490602086519162461bcd60e51b8352820152602560248201527f45524332303a2064656372656173656420616c6c6f77616e63652062656c6f77604482015264207a65726f60d81b6064820152fd5b80fd5b50503461020657816003193601126102065751908152602090f35b5050346102065760209081600319360112610202576106db610fc4565b906106e4611044565b6000805160206118dc833981519152928385526005815261018d6001838720015461120b565b838334610206578160031936011261020657805191809380549160019083821c92828516948515610803575b60209586861081146107f0578589529081156107cc5750600114610774575b6107708787610766828c0383611347565b5191829182611018565b0390f35b81529295507f8a35acfbc15ff81a39ae7d344fd709f28e8600b4aa8c65c6b64bfe7fe36bd19b5b8284106107b957505050826107709461076692820101948680610755565b805486850188015292860192810161079b565b60ff19168887015250505050151560051b8301019250610766826107708680610755565b634e487b7160e01b845260228352602484fd5b93607f1693610736565b9050346102025781600319360112610202578160209360ff9261082e610fdf565b90358252600586528282206001600160a01b039091168252855220549151911615158152f35b5050346102065760203660031901126102065760209181906001600160a01b0361087c610fc4565b16815280845220549051908152f35b9050346102025781600319360112610202576108a5610fc4565b906024928335916000805160206118dc8339815191529384875260209460058652838820338952865260ff84892054161561097857506001600160a01b03169485156109385750509181859361091e7fddf252ad1be2c89b69c2b068fc378daa952ba7f163c4a11628f55a4df523b3ef946002546113df565b60025585855284835280852082815401905551908152a380f35b601f9085606494519362461bcd60e51b85528401528201527f45524332303a206d696e7420746f20746865207a65726f2061646472657373006044820152fd5b8591508688916109873361152b565b909186519261099584611315565b60428452858401946060368737845115610550576030865384519060019182101561053e5790607860218701536041915b818311610a1c57505050610494575061049093869361047c9361046d6048946104449a519a8576020b1b1b2b9b9a1b7b73a3937b61d1030b1b1b7bab73a1604d1b8d978801528251928391603789019101610ff5565b909192600f8116601081101561052c576f181899199a1a9b1b9c1cb0b131b232b360811b901a610a4c8589611504565b53891c92801561051a576000190191906109c6565b5050346102065780600319360112610206576105f4602092610aaa610a84610fc4565b338352600186528483206001600160a01b038216845286529184902054602435906113df565b9033611402565b83915034610206578260031936011261020657610acc610fdf565b90336001600160a01b03831603610ae8579061059e9135611369565b608490602085519162461bcd60e51b8352820152602f60248201527f416363657373436f6e74726f6c3a2063616e206f6e6c792072656e6f756e636560448201526e103937b632b9903337b91039b2b63360891b6064820152fd5b5050346102065781600319360112610206576020905160128152f35b505034610206576020908160031936011261020257610b7c610fc4565b90610b85611044565b6000805160206118dc8339815191529283855260058152610bab6001838720015461120b565b838552600581528185206001600160a01b039093168086529281528185205460ff16610bd5578480f35b8385526005815281852083865290528320805460ff1916905533917ff6391f5c32d9c69d2a47ea670b442974b53935d1edc7fd64eb21e047a839171b8480a4388080808480f35b9050346102025781600319360112610202573590610c38610fdf565b908284526005602052610c506001828620015461120b565b828452600560209081528185206001600160a01b039093168086529290528084205460ff1615610c7e578380f35b82845260056020528084208285526020528320600160ff1982541617905533917f2f8788117e7eff1d82e926ec794901d17c78024a50270940304540a733656f0d8480a43880808380f35b505034610206578160031936011261020657602090516000805160206118bc8339815191528152f35b9050346102025760203660031901126102025781602093600192358152600585522001549051908152f35b8391503461020657606036600319011261020657610d39610fc4565b610d41610fdf565b91846044359460018060a01b038416815260016020528181203382526020522054906000198203610d7b575b6020866105f487878761163a565b848210610da45750918391610d99602096956105f495033383611402565b919394819350610d6d565b606490602087519162461bcd60e51b8352820152601d60248201527f45524332303a20696e73756666696369656e7420616c6c6f77616e63650000006044820152fd5b5050346102065781600319360112610206576020906002549051908152f35b5050346102065780600319360112610206576020906105f4610e26610fc4565b6024359033611402565b91905034610202578260031936011261020257805191836003549060019082821c928281168015610f1b575b6020958686108214610f085750848852908115610ee65750600114610e8d575b6107708686610766828b0383611347565b929550600383527fc2575a0e9e593c00f959f8c92f12db2869c3395a3b0502d05e2516446f71f85b5b828410610ed3575050508261077094610766928201019438610e7c565b8054868501880152928601928101610eb6565b60ff191687860152505050151560051b83010192506107668261077038610e7c565b634e487b7160e01b845260229052602483fd5b93607f1693610e5c565b505034610206576020908160031936011261020257610f42610fc4565b90610f4b611044565b6000805160206118bc8339815191529283855260058152610bab6001838720015461120b565b849134610202576020366003190112610202573563ffffffff60e01b81168091036102025760209250637965db0b60e01b8114908115610fb3575b5015158152f35b6301ffc9a760e01b14905083610fac565b600435906001600160a01b0382168203610fda57565b600080fd5b602435906001600160a01b0382168203610fda57565b60005b8381106110085750506000910152565b8181015183820152602001610ff8565b604091602082526110388151809281602086015260208686019101610ff5565b601f01601f1916010190565b3360009081527f05b8ccbb9d4d8fb16ea74ce3c29a41f1b461fbdaff4714a0d9a8eb05499746bc602090815260408083205490929060ff161561108657505050565b61108f3361152b565b8351908261109c83611315565b604283528483019360603686378351156111f757603085538351906001918210156111f75790607860218601536041915b8183116111895750505061114757610444938593611131936111226048946104909951988576020b1b1b2b9b9a1b7b73a3937b61d1030b1b1b7bab73a1604d1b8b978801528251928391603789019101610ff5565b01036028810185520183611347565b5162461bcd60e51b815291829160048301611018565b60648486519062461bcd60e51b825280600483015260248201527f537472696e67733a20686578206c656e67746820696e73756666696369656e746044820152fd5b909192600f811660108110156111e3576f181899199a1a9b1b9c1cb0b131b232b360811b901a6111b98588611504565b5360041c9280156111cf576000190191906110cd565b634e487b7160e01b82526011600452602482fd5b634e487b7160e01b83526032600452602483fd5b634e487b7160e01b81526032600452602490fd5b600081815260209060058252604092838220338352835260ff8483205416156112345750505050565b61123d3361152b565b84519161124983611315565b604283528483019360603686378351156111f757603085538351906001918210156111f75790607860218601536041915b8183116112cf5750505061114757610444938593611131936111226048946104909951988576020b1b1b2b9b9a1b7b73a3937b61d1030b1b1b7bab73a1604d1b8b978801528251928391603789019101610ff5565b909192600f811660108110156111e3576f181899199a1a9b1b9c1cb0b131b232b360811b901a6112ff8588611504565b5360041c9280156111cf5760001901919061127a565b6080810190811067ffffffffffffffff82111761133157604052565b634e487b7160e01b600052604160045260246000fd5b90601f8019910116810190811067ffffffffffffffff82111761133157604052565b906000918083526005602052604083209160018060a01b03169182845260205260ff60408420541661139a57505050565b8083526005602052604083208284526020526040832060ff1981541690557ff6391f5c32d9c69d2a47ea670b442974b53935d1edc7fd64eb21e047a839171b339380a4565b919082018092116113ec57565b634e487b7160e01b600052601160045260246000fd5b6001600160a01b039081169182156114b357169182156114635760207f8c5be1e5ebec7d5bd14f71427d1e84f3dd0314c0f7b2291e5b200ac8c7c3b925918360005260018252604060002085600052825280604060002055604051908152a3565b60405162461bcd60e51b815260206004820152602260248201527f45524332303a20617070726f766520746f20746865207a65726f206164647265604482015261737360f01b6064820152608490fd5b60405162461bcd60e51b8152602060048201526024808201527f45524332303a20617070726f76652066726f6d20746865207a65726f206164646044820152637265737360e01b6064820152608490fd5b908151811015611515570160200190565b634e487b7160e01b600052603260045260246000fd5b604051906060820182811067ffffffffffffffff82111761133157604052602a82526020820160403682378251156115155760309053815160019081101561151557607860218401536029905b8082116115cc5750506115885790565b606460405162461bcd60e51b815260206004820152602060248201527f537472696e67733a20686578206c656e67746820696e73756666696369656e746044820152fd5b9091600f81166010811015611625576f181899199a1a9b1b9c1cb0b131b232b360811b901a6115fb8486611504565b5360041c918015611610576000190190611578565b60246000634e487b7160e01b81526011600452fd5b60246000634e487b7160e01b81526032600452fd5b6001600160a01b039182169283159290918315611840573360009081527f847f481f687befb06ed3511f1a8dcef57e83007c0147ae5047583d7056170937602052604090205460ff168015611835575b156117f0575b1691821561179d5761174c576000828152806020526040812054918083106116f857604082827fddf252ad1be2c89b69c2b068fc378daa952ba7f163c4a11628f55a4df523b3ef958760209652828652038282205586815220818154019055604051908152a3565b60405162461bcd60e51b815260206004820152602660248201527f45524332303a207472616e7366657220616d6f756e7420657863656564732062604482015265616c616e636560d01b6064820152608490fd5b60405162461bcd60e51b815260206004820152602360248201527f45524332303a207472616e7366657220746f20746865207a65726f206164647260448201526265737360e81b6064820152608490fd5b60405162461bcd60e51b815260206004820152602560248201527f45524332303a207472616e736665722066726f6d20746865207a65726f206164604482015264647265737360d81b6064820152608490fd5b60405162461bcd60e51b815260206004820152601c60248201527f486f7065546f6b656e3a20556e617574686f72697a6564206275726e000000006044820152606490fd5b50338282161461168a565b3360009081527f05b8ccbb9d4d8fb16ea74ce3c29a41f1b461fbdaff4714a0d9a8eb05499746bc602052604090205460ff166116905760405162461bcd60e51b815260206004820152601f60248201527f486f7065546f6b656e3a205472616e73666572732072657374726963746564006044820152606490fdfe3c11d16cbaffd01df69ce1c404f6340ee057498f5f00246190ea54220576a8489f2df0fed2c77648de5860a4cc508cd0818c85b8b8a1ab4ceeef8d981c8956a6a264697066735822122099426850a293f73462091c72ab28e005d06c4aafd9332f7ddc1fc87a7ac031e764736f6c634300081100332f8788117e7eff1d82e926ec794901d17c78024a50270940304540a733656f0d",
  "immutableReferences": {},
  "source": "// SPDX-License-Identifier: MIT\r\npragma solidity ^0.8.17;\r\n\r\nimport \"@openzeppelin/contracts/token/ERC20/ERC20.sol\";\r\nimport \"@openzeppelin/contracts/access/AccessControl.sol\";\r\n\r\n/**\r\n * @title HopeToken\r\n * @dev Custom ERC20 token for incentivizing organ donors through controlled minting, burning, and transfer restrictions.\r\n */\r\ncontract HopeToken is ERC20, AccessControl {\r\n    bytes32 public constant MINTER_ROLE = keccak256(\"MINTER_ROLE\");\r\n    bytes32 public constant BURNER_ROLE = keccak256(\"BURNER_ROLE\");\r\n\r\n    constructor(address initialAdmin) ERC20(\"Hope Token\", \"HOPE\") {\r\n        _setupRole(DEFAULT_ADMIN_ROLE, initialAdmin);\r\n        _setupRole(MINTER_ROLE, initialAdmin);\r\n        _setupRole(BURNER_ROLE, initialAdmin);\r\n    }\r\n\r\n    /**\r\n     * @dev Mint tokens to a donor upon registration and successful health evaluation.\r\n     * Can only be called by accounts with MINTER_ROLE.\r\n     */\r\n    function mint(address to, uint256 amount) public onlyRole(MINTER_ROLE) {\r\n        _mint(to, amount);\r\n    }\r\n\r\n    /**\r\n     * @dev Burn tokens when redeemed for benefits (e.g., tax credits).\r\n     * Can only be called by accounts with BURNER_ROLE.\r\n     */\r\n    function burnForRedemption(address from, uint256 amount) public onlyRole(BURNER_ROLE) {\r\n        _burn(from, amount);\r\n    }\r\n\r\n    /**\r\n     * @dev Restrict transfers: Only admin can transfer tokens between accounts. Burns allowed if sender is BURNER or self.\r\n     */\r\n    function _transfer(address from, address to, uint256 amount) internal override {\r\n        if (to == address(0)) {  // burn\r\n            require(hasRole(BURNER_ROLE, _msgSender()) || from == _msgSender(), \"HopeToken: Unauthorized burn\");\r\n        } else {\r\n            require(hasRole(DEFAULT_ADMIN_ROLE, _msgSender()), \"HopeToken: Transfers restricted\");\r\n        }\r\n        super._transfer(from, to, amount);\r\n    }\r\n\r\n    // Admin functions to manage roles\r\n    function addMinter(address account) public onlyRole(DEFAULT_ADMIN_ROLE) {\r\n        grantRole(MINTER_ROLE, account);\r\n    }\r\n\r\n    function removeMinter(address account) public onlyRole(DEFAULT_ADMIN_ROLE) {\r\n        revokeRole(MINTER_ROLE, account);\r\n    }\r\n\r\n    function addBurner(address account) public onlyRole(DEFAULT_ADMIN_ROLE) {\r\n        grantRole(BURNER_ROLE, account);\r\n    }\r\n\r\n    function removeBurner(address account) public onlyRole(DEFAULT_ADMIN_ROLE) {\r\n        revokeRole(BURNER_ROLE, account);\r\n    }\r\n}\r\n",
  "sourcePath": "C:\\Users\\tejas\\HopeConnect\\hopeconnect-blockchain\\contracts\\HopeToken.sol",
  "compiler": {
    "name": "solc",
    "version": "0.8.17+commit.8df45f5f.Emscripten.clang"
  },
  "schemaVersion": "3.4.16",
  "updatedAt": "2025-05-16T15:42:11.587Z",
  "networkType": "ethereum",
  "devdoc": {
    "details": "Custom ERC20 token for incentivizing organ donors through controlled minting, burning, and transfer restrictions.",
    "kind": "dev",
    "methods": {
      "allowance(address,address)": {
        "details": "See {IERC20-allowance}."
      },
      "approve(address,uint256)": {
        "details": "See {IERC20-approve}. NOTE: If `amount` is the maximum `uint256`, the allowance is not updated on `transferFrom`. This is semantically equivalent to an infinite approval. Requirements: - `spender` cannot be the zero address."
      },
      "balanceOf(address)": {
        "details": "See {IERC20-balanceOf}."
      },
      "burnForRedemption(address,uint256)": {
        "details": "Burn tokens when redeemed for benefits (e.g., tax credits). Can only be called by accounts with BURNER_ROLE."
      },
      "decimals()": {
        "details": "Returns the number of decimals used to get its user representation. For example, if `decimals` equals `2`, a balance of `505` tokens should be displayed to a user as `5.05` (`505 / 10 ** 2`). Tokens usually opt for a value of 18, imitating the relationship between Ether and Wei. This is the default value returned by this function, unless it's overridden. NOTE: This information is only used for _display_ purposes: it in no way affects any of the arithmetic of the contract, including {IERC20-balanceOf} and {IERC20-transfer}."
      },
      "decreaseAllowance(address,uint256)": {
        "details": "Atomically decreases the allowance granted to `spender` by the caller. This is an alternative to {approve} that can be used as a mitigation for problems described in {IERC20-approve}. Emits an {Approval} event indicating the updated allowance. Requirements: - `spender` cannot be the zero address. - `spender` must have allowance for the caller of at least `subtractedValue`."
      },
      "getRoleAdmin(bytes32)": {
        "details": "Returns the admin role that controls `role`. See {grantRole} and {revokeRole}. To change a role's admin, use {_setRoleAdmin}."
      },
      "grantRole(bytes32,address)": {
        "details": "Grants `role` to `account`. If `account` had not been already granted `role`, emits a {RoleGranted} event. Requirements: - the caller must have ``role``'s admin role. May emit a {RoleGranted} event."
      },
      "hasRole(bytes32,address)": {
        "details": "Returns `true` if `account` has been granted `role`."
      },
      "increaseAllowance(address,uint256)": {
        "details": "Atomically increases the allowance granted to `spender` by the caller. This is an alternative to {approve} that can be used as a mitigation for problems described in {IERC20-approve}. Emits an {Approval} event indicating the updated allowance. Requirements: - `spender` cannot be the zero address."
      },
      "mint(address,uint256)": {
        "details": "Mint tokens to a donor upon registration and successful health evaluation. Can only be called by accounts with MINTER_ROLE."
      },
      "name()": {
        "details": "Returns the name of the token."
      },
      "renounceRole(bytes32,address)": {
        "details": "Revokes `role` from the calling account. Roles are often managed via {grantRole} and {revokeRole}: this function's purpose is to provide a mechanism for accounts to lose their privileges if they are compromised (such as when a trusted device is misplaced). If the calling account had been revoked `role`, emits a {RoleRevoked} event. Requirements: - the caller must be `account`. May emit a {RoleRevoked} event."
      },
      "revokeRole(bytes32,address)": {
        "details": "Revokes `role` from `account`. If `account` had been granted `role`, emits a {RoleRevoked} event. Requirements: - the caller must have ``role``'s admin role. May emit a {RoleRevoked} event."
      },
      "supportsInterface(bytes4)": {
        "details": "See {IERC165-supportsInterface}."
      },
      "symbol()": {
        "details": "Returns the symbol of the token, usually a shorter version of the name."
      },
      "totalSupply()": {
        "details": "See {IERC20-totalSupply}."
      },
      "transfer(address,uint256)": {
        "details": "See {IERC20-transfer}. Requirements: - `to` cannot be the zero address. - the caller must have a balance of at least `amount`."
      },
      "transferFrom(address,address,uint256)": {
        "details": "See {IERC20-transferFrom}. Emits an {Approval} event indicating the updated allowance. This is not required by the EIP. See the note at the beginning of {ERC20}. NOTE: Does not update the allowance if the current allowance is the maximum `uint256`. Requirements: - `from` and `to` cannot be the zero address. - `from` must have a balance of at least `amount`. - the caller must have allowance for ``from``'s tokens of at least `amount`."
      }
    },
    "title": "HopeToken",
    "version": 1
  },
  "userdoc": {
    "kind": "user",
    "methods": {},
    "version": 1
  }
}