{
  "contractName": "OrganChain",
  "abi": [
    {
      "inputs": [
        {
          "internalType": "address",
          "name": "_consentManagerAddress",
          "type": "address"
        },
        {
          "internalType": "address",
          "name": "_didRegistryAddress",
          "type": "address"
        }
      ],
      "stateMutability": "nonpayable",
      "type": "constructor"
    },
    {
      "anonymous": false,
      "inputs": [
        {
          "indexed": true,
          "internalType": "string",
          "name": "donorDID",
          "type": "string"
        },
        {
          "indexed": true,
          "internalType": "address",
          "name": "donorEthAddress",
          "type": "address"
        },
        {
          "indexed": false,
          "internalType": "uint256",
          "name": "timestamp",
          "type": "uint256"
        }
      ],
      "name": "DonorProfileRegistered",
      "type": "event"
    },
    {
      "anonymous": false,
      "inputs": [
        {
          "indexed": true,
          "internalType": "uint256",
          "name": "organId",
          "type": "uint256"
        },
        {
          "indexed": true,
          "internalType": "address",
          "name": "approver",
          "type": "address"
        }
      ],
      "name": "MultiSigApproved",
      "type": "event"
    },
    {
      "anonymous": false,
      "inputs": [
        {
          "indexed": true,
          "internalType": "uint256",
          "name": "organId",
          "type": "uint256"
        },
        {
          "indexed": false,
          "internalType": "address[]",
          "name": "approvers",
          "type": "address[]"
        },
        {
          "indexed": false,
          "internalType": "uint256",
          "name": "requiredApprovals",
          "type": "uint256"
        }
      ],
      "name": "MultiSigInitiated",
      "type": "event"
    },
    {
      "anonymous": false,
      "inputs": [
        {
          "indexed": true,
          "internalType": "string",
          "name": "donorDID",
          "type": "string"
        },
        {
          "indexed": true,
          "internalType": "uint256",
          "name": "organId",
          "type": "uint256"
        },
        {
          "indexed": false,
          "internalType": "enum OrganChain.OrganType",
          "name": "organType",
          "type": "uint8"
        },
        {
          "indexed": false,
          "internalType": "uint256",
          "name": "timestamp",
          "type": "uint256"
        }
      ],
      "name": "OrganRegisteredForDID",
      "type": "event"
    },
    {
      "anonymous": false,
      "inputs": [
        {
          "indexed": true,
          "internalType": "uint256",
          "name": "organId",
          "type": "uint256"
        }
      ],
      "name": "OrganReleasedForTransplant",
      "type": "event"
    },
    {
      "anonymous": false,
      "inputs": [
        {
          "indexed": true,
          "internalType": "uint256",
          "name": "organId",
          "type": "uint256"
        },
        {
          "indexed": false,
          "internalType": "enum OrganChain.OrganStatus",
          "name": "newStatus",
          "type": "uint8"
        },
        {
          "indexed": true,
          "internalType": "string",
          "name": "performedByDID",
          "type": "string"
        },
        {
          "indexed": false,
          "internalType": "uint256",
          "name": "timestamp",
          "type": "uint256"
        },
        {
          "indexed": false,
          "internalType": "string",
          "name": "notes",
          "type": "string"
        }
      ],
      "name": "OrganStatusUpdated",
      "type": "event"
    },
    {
      "anonymous": false,
      "inputs": [
        {
          "indexed": true,
          "internalType": "bytes32",
          "name": "role",
          "type": "bytes32"
        },
        {
          "indexed": true,
          "internalType": "bytes32",
          "name": "previousAdminRole",
          "type": "bytes32"
        },
        {
          "indexed": true,
          "internalType": "bytes32",
          "name": "newAdminRole",
          "type": "bytes32"
        }
      ],
      "name": "RoleAdminChanged",
      "type": "event"
    },
    {
      "anonymous": false,
      "inputs": [
        {
          "indexed": true,
          "internalType": "bytes32",
          "name": "role",
          "type": "bytes32"
        },
        {
          "indexed": true,
          "internalType": "address",
          "name": "account",
          "type": "address"
        },
        {
          "indexed": true,
          "internalType": "address",
          "name": "sender",
          "type": "address"
        }
      ],
      "name": "RoleGranted",
      "type": "event"
    },
    {
      "anonymous": false,
      "inputs": [
        {
          "indexed": true,
          "internalType": "bytes32",
          "name": "role",
          "type": "bytes32"
        },
        {
          "indexed": true,
          "internalType": "address",
          "name": "account",
          "type": "address"
        },
        {
          "indexed": true,
          "internalType": "address",
          "name": "sender",
          "type": "address"
        }
      ],
      "name": "RoleRevoked",
      "type": "event"
    },
    {
      "anonymous": false,
      "inputs": [
        {
          "indexed": true,
          "internalType": "uint256",
          "name": "transplantLogId",
          "type": "uint256"
        },
        {
          "indexed": true,
          "internalType": "uint256",
          "name": "organId",
          "type": "uint256"
        },
        {
          "indexed": true,
          "internalType": "string",
          "name": "donorDID",
          "type": "string"
        },
        {
          "indexed": false,
          "internalType": "bool",
          "name": "successful",
          "type": "bool"
        },
        {
          "indexed": false,
          "internalType": "uint256",
          "name": "timestamp",
          "type": "uint256"
        }
      ],
      "name": "TransplantRecorded",
      "type": "event"
    },
    {
      "inputs": [],
      "name": "ADMIN_ROLE",
      "outputs": [
        {
          "internalType": "bytes32",
          "name": "",
          "type": "bytes32"
        }
      ],
      "stateMutability": "view",
      "type": "function",
      "constant": true
    },
    {
      "inputs": [],
      "name": "DEFAULT_ADMIN_ROLE",
      "outputs": [
        {
          "internalType": "bytes32",
          "name": "",
          "type": "bytes32"
        }
      ],
      "stateMutability": "view",
      "type": "function",
      "constant": true
    },
    {
      "inputs": [],
      "name": "DID_REGISTRAR_ROLE",
      "outputs": [
        {
          "internalType": "bytes32",
          "name": "",
          "type": "bytes32"
        }
      ],
      "stateMutability": "view",
      "type": "function",
      "constant": true
    },
    {
      "inputs": [],
      "name": "DONOR_AUTH_ROLE",
      "outputs": [
        {
          "internalType": "bytes32",
          "name": "",
          "type": "bytes32"
        }
      ],
      "stateMutability": "view",
      "type": "function",
      "constant": true
    },
    {
      "inputs": [],
      "name": "HOSPITAL_ROLE",
      "outputs": [
        {
          "internalType": "bytes32",
          "name": "",
          "type": "bytes32"
        }
      ],
      "stateMutability": "view",
      "type": "function",
      "constant": true
    },
    {
      "inputs": [],
      "name": "LOGISTICS_ROLE",
      "outputs": [
        {
          "internalType": "bytes32",
          "name": "",
          "type": "bytes32"
        }
      ],
      "stateMutability": "view",
      "type": "function",
      "constant": true
    },
    {
      "inputs": [],
      "name": "REGULATOR_ROLE",
      "outputs": [
        {
          "internalType": "bytes32",
          "name": "",
          "type": "bytes32"
        }
      ],
      "stateMutability": "view",
      "type": "function",
      "constant": true
    },
    {
      "inputs": [
        {
          "internalType": "address",
          "name": "_account",
          "type": "address"
        }
      ],
      "name": "addAdmin",
      "outputs": [],
      "stateMutability": "nonpayable",
      "type": "function"
    },
    {
      "inputs": [
        {
          "internalType": "address",
          "name": "_account",
          "type": "address"
        }
      ],
      "name": "addDidRegistrar",
      "outputs": [],
      "stateMutability": "nonpayable",
      "type": "function"
    },
    {
      "inputs": [
        {
          "internalType": "address",
          "name": "_account",
          "type": "address"
        }
      ],
      "name": "addDonorAuth",
      "outputs": [],
      "stateMutability": "nonpayable",
      "type": "function"
    },
    {
      "inputs": [
        {
          "internalType": "address",
          "name": "_account",
          "type": "address"
        }
      ],
      "name": "addHospital",
      "outputs": [],
      "stateMutability": "nonpayable",
      "type": "function"
    },
    {
      "inputs": [
        {
          "internalType": "address",
          "name": "_account",
          "type": "address"
        }
      ],
      "name": "addLogisticsPartner",
      "outputs": [],
      "stateMutability": "nonpayable",
      "type": "function"
    },
    {
      "inputs": [
        {
          "internalType": "address",
          "name": "_account",
          "type": "address"
        }
      ],
      "name": "addRegulator",
      "outputs": [],
      "stateMutability": "nonpayable",
      "type": "function"
    },
    {
      "inputs": [],
      "name": "consentManager",
      "outputs": [
        {
          "internalType": "contract IConsentManager",
          "name": "",
          "type": "address"
        }
      ],
      "stateMutability": "view",
      "type": "function",
      "constant": true
    },
    {
      "inputs": [],
      "name": "contractOwner",
      "outputs": [
        {
          "internalType": "address",
          "name": "",
          "type": "address"
        }
      ],
      "stateMutability": "view",
      "type": "function",
      "constant": true
    },
    {
      "inputs": [],
      "name": "didRegistry",
      "outputs": [
        {
          "internalType": "contract IDIDRegistry",
          "name": "",
          "type": "address"
        }
      ],
      "stateMutability": "view",
      "type": "function",
      "constant": true
    },
    {
      "inputs": [
        {
          "internalType": "string",
          "name": "",
          "type": "string"
        }
      ],
      "name": "donorDIDToEthAddress",
      "outputs": [
        {
          "internalType": "address",
          "name": "",
          "type": "address"
        }
      ],
      "stateMutability": "view",
      "type": "function",
      "constant": true
    },
    {
      "inputs": [
        {
          "internalType": "bytes32",
          "name": "role",
          "type": "bytes32"
        }
      ],
      "name": "getRoleAdmin",
      "outputs": [
        {
          "internalType": "bytes32",
          "name": "",
          "type": "bytes32"
        }
      ],
      "stateMutability": "view",
      "type": "function",
      "constant": true
    },
    {
      "inputs": [
        {
          "internalType": "bytes32",
          "name": "role",
          "type": "bytes32"
        },
        {
          "internalType": "address",
          "name": "account",
          "type": "address"
        }
      ],
      "name": "grantRole",
      "outputs": [],
      "stateMutability": "nonpayable",
      "type": "function"
    },
    {
      "inputs": [
        {
          "internalType": "bytes32",
          "name": "role",
          "type": "bytes32"
        },
        {
          "internalType": "address",
          "name": "account",
          "type": "address"
        }
      ],
      "name": "hasRole",
      "outputs": [
        {
          "internalType": "bool",
          "name": "",
          "type": "bool"
        }
      ],
      "stateMutability": "view",
      "type": "function",
      "constant": true
    },
    {
      "inputs": [],
      "name": "impactLedger",
      "outputs": [
        {
          "internalType": "contract IImpactLedger",
          "name": "",
          "type": "address"
        }
      ],
      "stateMutability": "view",
      "type": "function",
      "constant": true
    },
    {
      "inputs": [
        {
          "internalType": "string",
          "name": "",
          "type": "string"
        }
      ],
      "name": "isDonorDIDRegistered",
      "outputs": [
        {
          "internalType": "bool",
          "name": "",
          "type": "bool"
        }
      ],
      "stateMutability": "view",
      "type": "function",
      "constant": true
    },
    {
      "inputs": [
        {
          "internalType": "uint256",
          "name": "",
          "type": "uint256"
        },
        {
          "internalType": "uint256",
          "name": "",
          "type": "uint256"
        }
      ],
      "name": "organAuditTrail",
      "outputs": [
        {
          "internalType": "uint256",
          "name": "organId",
          "type": "uint256"
        },
        {
          "internalType": "uint256",
          "name": "timestamp",
          "type": "uint256"
        },
        {
          "internalType": "enum OrganChain.OrganStatus",
          "name": "statusChange",
          "type": "uint8"
        },
        {
          "internalType": "address",
          "name": "performedByEthAddress",
          "type": "address"
        },
        {
          "internalType": "string",
          "name": "performedByDID",
          "type": "string"
        },
        {
          "internalType": "string",
          "name": "notes",
          "type": "string"
        }
      ],
      "stateMutability": "view",
      "type": "function",
      "constant": true
    },
    {
      "inputs": [
        {
          "internalType": "uint256",
          "name": "",
          "type": "uint256"
        }
      ],
      "name": "organs",
      "outputs": [
        {
          "internalType": "uint256",
          "name": "id",
          "type": "uint256"
        },
        {
          "internalType": "string",
          "name": "donorDID",
          "type": "string"
        },
        {
          "internalType": "enum OrganChain.OrganType",
          "name": "organType",
          "type": "uint8"
        },
        {
          "internalType": "address",
          "name": "recoveryHospitalDIDOwner",
          "type": "address"
        },
        {
          "internalType": "uint256",
          "name": "recoveryTimestamp",
          "type": "uint256"
        },
        {
          "internalType": "enum OrganChain.OrganStatus",
          "name": "status",
          "type": "uint8"
        },
        {
          "internalType": "string",
          "name": "currentHolderIdentifierDID",
          "type": "string"
        },
        {
          "internalType": "uint256",
          "name": "lastUpdatedTimestamp",
          "type": "uint256"
        },
        {
          "internalType": "string",
          "name": "matchedRecipientDID",
          "type": "string"
        },
        {
          "internalType": "uint256",
          "name": "transplantLogId",
          "type": "uint256"
        },
        {
          "internalType": "uint256",
          "name": "requiredMultiSigApprovals",
          "type": "uint256"
        },
        {
          "internalType": "bool",
          "name": "multiSigApproved",
          "type": "bool"
        }
      ],
      "stateMutability": "view",
      "type": "function",
      "constant": true
    },
    {
      "inputs": [
        {
          "internalType": "address",
          "name": "_account",
          "type": "address"
        }
      ],
      "name": "removeAdmin",
      "outputs": [],
      "stateMutability": "nonpayable",
      "type": "function"
    },
    {
      "inputs": [
        {
          "internalType": "address",
          "name": "_account",
          "type": "address"
        }
      ],
      "name": "removeDidRegistrar",
      "outputs": [],
      "stateMutability": "nonpayable",
      "type": "function"
    },
    {
      "inputs": [
        {
          "internalType": "address",
          "name": "_account",
          "type": "address"
        }
      ],
      "name": "removeDonorAuth",
      "outputs": [],
      "stateMutability": "nonpayable",
      "type": "function"
    },
    {
      "inputs": [
        {
          "internalType": "address",
          "name": "_account",
          "type": "address"
        }
      ],
      "name": "removeHospital",
      "outputs": [],
      "stateMutability": "nonpayable",
      "type": "function"
    },
    {
      "inputs": [
        {
          "internalType": "address",
          "name": "_account",
          "type": "address"
        }
      ],
      "name": "removeLogisticsPartner",
      "outputs": [],
      "stateMutability": "nonpayable",
      "type": "function"
    },
    {
      "inputs": [
        {
          "internalType": "address",
          "name": "_account",
          "type": "address"
        }
      ],
      "name": "removeRegulator",
      "outputs": [],
      "stateMutability": "nonpayable",
      "type": "function"
    },
    {
      "inputs": [
        {
          "internalType": "bytes32",
          "name": "role",
          "type": "bytes32"
        },
        {
          "internalType": "address",
          "name": "account",
          "type": "address"
        }
      ],
      "name": "renounceRole",
      "outputs": [],
      "stateMutability": "nonpayable",
      "type": "function"
    },
    {
      "inputs": [
        {
          "internalType": "bytes32",
          "name": "role",
          "type": "bytes32"
        },
        {
          "internalType": "address",
          "name": "account",
          "type": "address"
        }
      ],
      "name": "revokeRole",
      "outputs": [],
      "stateMutability": "nonpayable",
      "type": "function"
    },
    {
      "inputs": [
        {
          "internalType": "bytes4",
          "name": "interfaceId",
          "type": "bytes4"
        }
      ],
      "name": "supportsInterface",
      "outputs": [
        {
          "internalType": "bool",
          "name": "",
          "type": "bool"
        }
      ],
      "stateMutability": "view",
      "type": "function",
      "constant": true
    },
    {
      "inputs": [
        {
          "internalType": "uint256",
          "name": "",
          "type": "uint256"
        }
      ],
      "name": "transplantLogs",
      "outputs": [
        {
          "internalType": "uint256",
          "name": "id",
          "type": "uint256"
        },
        {
          "internalType": "uint256",
          "name": "organId",
          "type": "uint256"
        },
        {
          "internalType": "string",
          "name": "donorDID",
          "type": "string"
        },
        {
          "internalType": "string",
          "name": "recipientDID",
          "type": "string"
        },
        {
          "internalType": "address",
          "name": "transplantHospitalDIDOwner",
          "type": "address"
        },
        {
          "internalType": "uint256",
          "name": "completionTimestamp",
          "type": "uint256"
        },
        {
          "internalType": "bool",
          "name": "successful",
          "type": "bool"
        },
        {
          "internalType": "string",
          "name": "anonymizedRecipientInfo",
          "type": "string"
        }
      ],
      "stateMutability": "view",
      "type": "function",
      "constant": true
    },
    {
      "inputs": [
        {
          "internalType": "address",
          "name": "_ledgerAddress",
          "type": "address"
        }
      ],
      "name": "setImpactLedgerAddress",
      "outputs": [],
      "stateMutability": "nonpayable",
      "type": "function"
    },
    {
      "inputs": [
        {
          "internalType": "string",
          "name": "_donorDID",
          "type": "string"
        },
        {
          "internalType": "address",
          "name": "_donorEthAddress",
          "type": "address"
        }
      ],
      "name": "registerDonorProfileOnChain",
      "outputs": [],
      "stateMutability": "nonpayable",
      "type": "function"
    },
    {
      "inputs": [
        {
          "internalType": "string",
          "name": "_donorDID",
          "type": "string"
        },
        {
          "internalType": "enum OrganChain.OrganType",
          "name": "_organType",
          "type": "uint8"
        },
        {
          "internalType": "string",
          "name": "_recoveryHospitalDID",
          "type": "string"
        }
      ],
      "name": "registerOrgan",
      "outputs": [
        {
          "internalType": "uint256",
          "name": "",
          "type": "uint256"
        }
      ],
      "stateMutability": "nonpayable",
      "type": "function"
    },
    {
      "inputs": [
        {
          "internalType": "uint256",
          "name": "_organId",
          "type": "uint256"
        },
        {
          "internalType": "enum OrganChain.OrganStatus",
          "name": "_newStatus",
          "type": "uint8"
        },
        {
          "internalType": "string",
          "name": "_notes",
          "type": "string"
        },
        {
          "internalType": "string",
          "name": "_newHolderDID",
          "type": "string"
        }
      ],
      "name": "updateOrganStatusByDID",
      "outputs": [],
      "stateMutability": "nonpayable",
      "type": "function"
    },
    {
      "inputs": [
        {
          "internalType": "uint256",
          "name": "_organId",
          "type": "uint256"
        },
        {
          "internalType": "string",
          "name": "_recipientDID",
          "type": "string"
        },
        {
          "internalType": "enum IConsentManager.RecipientScope",
          "name": "_matchScope",
          "type": "uint8"
        },
        {
          "internalType": "enum IConsentManager.OrganUsage",
          "name": "_matchUsage",
          "type": "uint8"
        },
        {
          "internalType": "string",
          "name": "_notes",
          "type": "string"
        }
      ],
      "name": "setOrganAsMatchedWithConsentCheck",
      "outputs": [],
      "stateMutability": "nonpayable",
      "type": "function"
    },
    {
      "inputs": [
        {
          "internalType": "uint256",
          "name": "_organId",
          "type": "uint256"
        },
        {
          "internalType": "address[]",
          "name": "_approvers",
          "type": "address[]"
        },
        {
          "internalType": "uint256",
          "name": "_requiredApprovals",
          "type": "uint256"
        }
      ],
      "name": "initiateMultiSigRelease",
      "outputs": [],
      "stateMutability": "nonpayable",
      "type": "function"
    },
    {
      "inputs": [
        {
          "internalType": "uint256",
          "name": "_organId",
          "type": "uint256"
        }
      ],
      "name": "approveOrganRelease",
      "outputs": [],
      "stateMutability": "nonpayable",
      "type": "function"
    },
    {
      "inputs": [
        {
          "internalType": "uint256",
          "name": "_organId",
          "type": "uint256"
        },
        {
          "internalType": "bool",
          "name": "_successful",
          "type": "bool"
        },
        {
          "internalType": "string",
          "name": "_anonymizedRecipientInfo",
          "type": "string"
        },
        {
          "internalType": "string",
          "name": "_notes",
          "type": "string"
        }
      ],
      "name": "recordTransplantOutcome",
      "outputs": [],
      "stateMutability": "nonpayable",
      "type": "function"
    },
    {
      "inputs": [
        {
          "internalType": "string",
          "name": "_recipientDID",
          "type": "string"
        },
        {
          "internalType": "bytes",
          "name": "_zkProof",
          "type": "bytes"
        },
        {
          "internalType": "uint256[]",
          "name": "_publicInputs",
          "type": "uint256[]"
        }
      ],
      "name": "verifyEligibilityWithZKP",
      "outputs": [
        {
          "internalType": "bool",
          "name": "",
          "type": "bool"
        }
      ],
      "stateMutability": "view",
      "type": "function",
      "constant": true
    },
    {
      "inputs": [
        {
          "internalType": "uint256",
          "name": "_organId",
          "type": "uint256"
        }
      ],
      "name": "getOrganDetails",
      "outputs": [
        {
          "internalType": "uint256",
          "name": "id",
          "type": "uint256"
        },
        {
          "internalType": "string",
          "name": "donorDID",
          "type": "string"
        },
        {
          "internalType": "enum OrganChain.OrganType",
          "name": "organType",
          "type": "uint8"
        },
        {
          "internalType": "address",
          "name": "recoveryHospitalDIDOwner",
          "type": "address"
        },
        {
          "internalType": "uint256",
          "name": "recoveryTimestamp",
          "type": "uint256"
        },
        {
          "internalType": "enum OrganChain.OrganStatus",
          "name": "status",
          "type": "uint8"
        },
        {
          "internalType": "string",
          "name": "currentHolderIdentifierDID",
          "type": "string"
        },
        {
          "internalType": "uint256",
          "name": "lastUpdatedTimestamp",
          "type": "uint256"
        },
        {
          "internalType": "string",
          "name": "matchedRecipientDID",
          "type": "string"
        },
        {
          "internalType": "uint256",
          "name": "transplantLogId",
          "type": "uint256"
        },
        {
          "internalType": "address[]",
          "name": "multiSigApprovers",
          "type": "address[]"
        },
        {
          "internalType": "uint256",
          "name": "requiredMultiSigApprovals",
          "type": "uint256"
        },
        {
          "internalType": "bool",
          "name": "multiSigApproved",
          "type": "bool"
        }
      ],
      "stateMutability": "view",
      "type": "function",
      "constant": true
    },
    {
      "inputs": [
        {
          "internalType": "uint256",
          "name": "_organId",
          "type": "uint256"
        },
        {
          "internalType": "address",
          "name": "_approver",
          "type": "address"
        }
      ],
      "name": "getOrganMultiSigConfirmation",
      "outputs": [
        {
          "internalType": "bool",
          "name": "isConfirmed",
          "type": "bool"
        }
      ],
      "stateMutability": "view",
      "type": "function",
      "constant": true
    },
    {
      "inputs": [
        {
          "internalType": "uint256",
          "name": "_logId",
          "type": "uint256"
        }
      ],
      "name": "getTransplantLog",
      "outputs": [
        {
          "components": [
            {
              "internalType": "uint256",
              "name": "id",
              "type": "uint256"
            },
            {
              "internalType": "uint256",
              "name": "organId",
              "type": "uint256"
            },
            {
              "internalType": "string",
              "name": "donorDID",
              "type": "string"
            },
            {
              "internalType": "string",
              "name": "recipientDID",
              "type": "string"
            },
            {
              "internalType": "address",
              "name": "transplantHospitalDIDOwner",
              "type": "address"
            },
            {
              "internalType": "uint256",
              "name": "completionTimestamp",
              "type": "uint256"
            },
            {
              "internalType": "bool",
              "name": "successful",
              "type": "bool"
            },
            {
              "internalType": "string",
              "name": "anonymizedRecipientInfo",
              "type": "string"
            }
          ],
          "internalType": "struct OrganChain.TransplantLog",
          "name": "",
          "type": "tuple"
        }
      ],
      "stateMutability": "view",
      "type": "function",
      "constant": true
    },
    {
      "inputs": [
        {
          "internalType": "string",
          "name": "_donorDID",
          "type": "string"
        }
      ],
      "name": "getDonorEthAddress",
      "outputs": [
        {
          "internalType": "address",
          "name": "",
          "type": "address"
        }
      ],
      "stateMutability": "view",
      "type": "function",
      "constant": true
    },
    {
      "inputs": [
        {
          "internalType": "string",
          "name": "_donorDID",
          "type": "string"
        }
      ],
      "name": "checkDonorDIDRegistered",
      "outputs": [
        {
          "internalType": "bool",
          "name": "",
          "type": "bool"
        }
      ],
      "stateMutability": "view",
      "type": "function",
      "constant": true
    }
  ],
  "bytecode": "0x6080346200020457620055a490601f38839003908101601f19168201906001600160401b0382118383101762000209578083916040958694855283398101031262000204576200004f816200021f565b6200005e60208093016200021f565b60018060a01b031991338360015416176001556000808052808552858120338252855260ff868220541615620001cc575b7fa49807205ce4d355092ef5a8a18f56e8913cf4a201fbe287825b095693c2177590818152808652868120338252865260ff87822054161562000192575b50506001600160a01b039081169182156200014e57169283156200010b5750816009541617600955600a541617600a555161534f9081620002358239f35b60649085519062461bcd60e51b82526004820152601760248201527f4f433a20496e76616c69642044494452656769737472790000000000000000006044820152fd5b855162461bcd60e51b815260048101869052601a60248201527f4f433a20496e76616c696420436f6e73656e744d616e616765720000000000006044820152606490fd5b8181528086528681203382528652868120600160ff19825416179055339160008051602062005584833981519152339280a43880620000cd565b8080528085528581203382528552858120600160ff19825416179055333382600080516020620055848339815191528180a46200008f565b600080fd5b634e487b7160e01b600052604160045260246000fd5b51906001600160a01b0382168203620002045756fe60e080604052600436101561001357600080fd5b600060c05260003560e01c90816301ffc9a714614462575080630281ef2914613aac578063052cef7a14613a6f578063144bf58914613a445780631785f53c146139d95780631b470bc7146138d95780632010cee51461389a578063248a9ca31461386b5780632f2ff15d146137aa578063303eddaf146136ea578063326e69c8146136ba57806336568abe14613628578063379f5fed1461352c578063441e7a4714612cec5780634a9e0d7a146127cc5780634fbd241d14612688578063577f9fb11461265d57806367a2aa8c14611fc05780636d43b12014611def5780637048027514611d8757806373f5181814611d5c578063746761af14611d0657806375b238fc14611cdb57806378fa48b314611c525780637a717bbf14611be35780638e750faa146116c257806391d1485414611674578063a217fddf14611656578063a5146efe146115ce578063a5dbcf3e14611468578063a703affc1461142b578063a9698906146113b4578063aad1e6251461136e578063ac63f3c7146112f8578063b476403514611281578063c602d3fb14611256578063cd3a658414611150578063ce606ee014611125578063ce71245b1461103c578063d547741f14610ffc578063dce9a42914610f86578063e03217cf14610e77578063e75bb26614610e4c578063ed5ae6a214610c36578063f34ae28c14610b65578063f6ba667814610b37578063f8c1b1cc1461041c5763fc965d411461023457600080fd5b34610416576020806003193601126104165760e06004356040516102578161450e565b60c051815260c051848201526060928184604081940152828082015260c051608082015260c05160a082015260c05160c082015201528060c0515260068352604060c0512054156103dd5760c05152600682526103d9604060c0512091604051926102c18461450e565b80548452600181015491858501928352600785604051936102f0856102e9816002850161466e565b0386614560565b60408201948552604051946103138661030c816003860161466e565b0387614560565b8483019586526103b461039e60018060a01b03928360048601541699608087019a8b5261036e60058701549660a0890197885260c060ff60068301541699019815158952610367604051809b81930161466e565b0389614560565b60e08d019788526040518e819f9e829f8352519101525160408d01525161010080988d01526101208c0190614704565b965196601f1997888c83030160808d0152614704565b96511660a08901525160c088015251151560e087015251918584030190850152614704565b0390f35b60405162461bcd60e51b815260048101849052601160248201527013d0ce88131bd9c81b9bdd08199bdd5b99607a1b6044820152606490fd5b60c05180fd5b34610416576060366003190112610416576024356001600160401b0381116104165761044c903690600401614743565b6000805160206152da833981519152908160c05152604060c05180602052203360005260205260ff926104858460406000205416614b3e565b60043560c051526004602052604060c05120926104a484541515614e66565b84600485015416600d811015610b1f5760068114908115610b14575b5015610aa957604494853584101580610a9f575b15610a5b5760c0515b84811061097d575050506001600160401b03821161096557600160401b8211610965576009830154826009850155808310610942575b5060c08051600985019052516020812082825b858110610927575050508435600b850155600c8401805460ff191690555b600984015481101561059557806105616105909260098701614f11565b905460039190911b1c6001600160a01b03166000908152600a860160205260409020805460ff19169055614ec8565b610544565b5060048301805460ff19166008179055426006840155836105b533614d6b565b604051906105c282614545565b602a82527f4d756c74692d73696720666f72207472616e73706c616e742072656c65617365602083015269081a5b9a5d1a585d195960b21b604083015260043560005260056020526040600020906040519261061d8461452a565b6004358452602084019242845260408501906008825260608601923384526080870194855260a08701528054600160401b8110156108655761066491600182018155614773565b949094610911578551855551600185015560028401905191600d8310156108fb576106926106b59383614d53565b518154610100600160a81b03191660089190911b610100600160a81b0316179055565b518051906001600160401b038211610865576106e1826106d86003860154614634565b60038601614d0c565b602090601f831160011461088657918060a0949260049460009261087b575b50508160011b916000199060031b1c19161760038201555b019101518051906001600160401b0382116108655781906107438261073d8654614634565b86614d0c565b602090601f83116001146107ff576000926107f4575b50508160011b916000199060031b1c19161790555b6040519083604083016040845252606082019260c051945b8086106107c357823560208501526004357fada02cc1cb63c6d65c905ca73f2f9eae5b57f044403611e1e0f5ccd0a5a9042885870386a260c05180f35b909384356001600160a01b03811691908290036107ef5760208160019382935201950195019490610786565b600080fd5b015190508680610759565b6000858152602081209350601f198516905b81811061084d5750908460019594939210610834575b505050811b01905561076e565b015160001960f88460031b161c19169055868080610827565b92936020600181928786015181550195019301610811565b634e487b7160e01b600052604160045260246000fd5b015190508980610700565b906003840160005260206000209160005b601f19851681106108e357509260a0949260019260049583601f198116106108ca575b505050811b016003820155610718565b015160001960f88460031b161c191690558980806108ba565b91926020600181928685015181550194019201610897565b634e487b7160e01b600052602160045260246000fd5b634e487b7160e01b600052600060045260246000fd5b600190602061093584614efd565b9301928185015501610526565b61095f906009850160c0515283602060c051209182019101614cf5565b84610513565b634e487b7160e01b60c051526041600452602460c051fd5b61099061098b828787614eed565b614efd565b60008051602061529a83398151915260c05152604060c051806020522060018060a01b038092166000526020528260406000205416908115610a25575b50156109e1576109dc90614ec8565b6104dd565b60405162461bcd60e51b815260206004820181905260248201527f4f433a20417070726f766572206c61636b7320726571756972656420726f6c6581890152606490fd5b9050610a3561098b838888614eed565b908460c05152604060c051806020522091166000526020528160406000205416886109cd565b60405162461bcd60e51b815260206004820152601a60248201527f4f433a20496e76616c696420617070726f766572732f7265717300000000000081880152606490fd5b50853515156104d4565b60405162461bcd60e51b815260206004820152603760248201527f4f433a204f7267616e206e6f7420696e20636f7272656374207374617465206660448201527f6f72206d756c74692d73696720696e6974696174696f6e0000000000000000006064820152608490fd5b6007915014866104c0565b634e487b7160e01b60c051526021600452602460c051fd5b346104165760c05180600319360112610b625760206040516000805160206152fa8339815191528152f35b80fd5b346104165760403660031901126104165760243560043560c05152600560205260c05190604082208054821015610c3257610ba09250614773565b5080546103d96004610c246001850154946002810154610be560405192610bd584610bce816003850161466e565b0385614560565b610bce604051809781930161466e565b60405196879687526020870152610c026040870160ff8316614736565b60081c6001600160a01b0316606086015260c060808601819052850190614704565b9083820360a0850152614704565b8280fd5b34610416576040366003190112610416576004356001600160401b03811161041657610c669036906004016144b5565b610c6e6144f8565b906000805160206152da83398151915260c0515260c05191604060209380855220336000528352610ca660ff60406000205416614b3e565b8115610e07576001600160a01b0316928315610db65760ff60405183838237848185810160088152030190205416610d6057907fb55d20eeff5262ae20feec838df3d4afecf46aa38852d0ee4e8de75d1b22196f916040518282823784818481016007815203019020856001600160601b0360a01b8254161790556040518282823784818481016008815203019020600160ff1982541617905581604051928392833781016000815203902091604051428152a360c05180f35b60405162461bcd60e51b815260048101849052602860248201527f4f433a205468697320446f6e6f722044494420697320616c726561647920726560448201526719da5cdd195c995960c21b6064820152608490fd5b60405162461bcd60e51b8152600481018490526024808201527f4f433a20446f6e6f722045544820616464726573732063616e6e6f74206265206044820152637a65726f60e01b6064820152608490fd5b60405162461bcd60e51b815260048101849052601d60248201527f4f433a20446f6e6f72204449442063616e6e6f7420626520656d7074790000006044820152606490fd5b346104165760c05180600319360112610b62576009546040516001600160a01b039091168152602090f35b346104165760208060031936011261041657610e916144e2565b6000805160206152da83398151915260c05152604060c05180845220336000528252610ec460ff60406000205416614b3e565b7fe5ec56207875a0b8d83e68ab614946460a4f0ace37f13577b96c5131cd6916f48060c05152610eff6001604060c0518087522001546147a5565b60c080518290525180845260408082206001600160a01b03909416600081815294865293205460ff1615610f34575b60c05180f35b81905260c05192838152604084209083600052526040600020600160ff198254161790557f2f8788117e7eff1d82e926ec794901d17c78024a50270940304540a733656f0d339380a480808080610f2e565b346104165760208060031936011261041657610fa06144e2565b6000805160206152da83398151915260c05152604060c05180845220336000528252610fd360ff60406000205416614b3e565b60008051602061527a8339815191528060c05152610eff6001604060c0518087522001546147a5565b3461041657604036600319011261041657610f2e60043561101b6144f8565b908060c051526110376001604060c051806020522001546147a5565b614ab9565b346104165760203660031901126104165760043560c051526006602052604060c0512080546103d960018301549260076040519161108883611081816002850161466e565b0384614560565b6040519261109d84610bce816003860161466e565b61110660018060a01b03600484015416946110f86005850154936110da60ff600688015416966110d3604051809a81930161466e565b0388614560565b6040519a8b9a8b5260208b01526101008060408c01528a0190614704565b9088820360608a0152614704565b93608087015260a0860152151560c085015283820360e0850152614704565b346104165760c05180600319360112610b62576001546040516001600160a01b039091168152602090f35b34610416576020806003193601126104165761116a6144e2565b6000805160206152da83398151915260c05152604060c0518084522033600052825261119d60ff60406000205416614b3e565b7f3cd51e9cf5a83ed0e8a9916fe565fd0469404b3754513a2b4ecc1fd376e9d33c918260c051526111d96001604060c0518085522001546147a5565b600083815280825260408082206001600160a01b0390941680835293835290205460ff166112075760c05180f35b82600052600081526040600020908260005252604060002060ff19815416905533917ff6391f5c32d9c69d2a47ea670b442974b53935d1edc7fd64eb21e047a839171b600080a4808080610f2e565b346104165760c05180600319360112610b6257602060405160008051602061527a8339815191528152f35b34610416576020806003193601126104165761129b6144e2565b6000805160206152da83398151915260c05152604060c051808452203360005282526112ce60ff60406000205416614b3e565b60008051602061527a833981519152918260c051526111d96001604060c0518085522001546147a5565b3461041657602080600319360112610416576113126144e2565b6000805160206152da83398151915260c05152604060c0518084522033600052825261134560ff60406000205416614b3e565b60008051602061529a8339815191528060c05152610eff6001604060c0518087522001546147a5565b3461041657602061137e366145d3565b816113926040519283815193849201614611565b600790820190815281900382019020546040516001600160a01b039091168152f35b3461041657602080600319360112610416576113ce6144e2565b6000805160206152da83398151915260c05152604060c0518084522033600052825261140160ff60406000205416614b3e565b6000805160206152fa833981519152918260c051526111d96001604060c0518085522001546147a5565b346104165760c05180600319360112610b625760206040517f3cd51e9cf5a83ed0e8a9916fe565fd0469404b3754513a2b4ecc1fd376e9d33c8152f35b34610416576060366003190112610416576001600160401b03600435818111610416576114999036906004016144b5565b9091602435818111610416576114b39036906004016144b5565b9160443591508111610416576114cd903690600401614743565b92905060018060a01b03600a5416906040518092636b40594760e01b825281806115056020998a968760048501526024840191614be8565b03915afa9081156115c15760c0519161158c575b501561153d5715159081611533575b506040519015158152f35b9050151582611528565b60405162461bcd60e51b815260048101849052602160248201527f4f433a20526563697069656e742044494420666f72205a4b5020696e76616c696044820152601960fa1b6064820152608490fd5b90508381813d83116115ba575b6115a38183614560565b81010312610416576115b490614bdb565b84611519565b503d611599565b6040513d60c051823e3d90fd5b3461041657602080600319360112610416576115e86144e2565b6000805160206152da83398151915260c05152604060c0518084522033600052825261161b60ff60406000205416614b3e565b7f3cd51e9cf5a83ed0e8a9916fe565fd0469404b3754513a2b4ecc1fd376e9d33c8060c05152610eff6001604060c0518087522001546147a5565b346104165760c05180600319360112610b6257602090604051908152f35b346104165760403660031901126104165761168d6144f8565b60043560c05152604060c05180602052209060018060a01b0316600052602052602060ff604060002054166040519015158152f35b3461041657608036600319011261041657600d6024351015610416576044356001600160401b038111610416576116fd9036906004016144b5565b6064356001600160401b0381116104165761171c9036906004016144b5565b9060043560c051526004602052604060c051209061173c82541515614e66565b61174533614d6b565b9260006002602435148015611bd4575b15611b2857506000805160206152fa83398151915260c05152604060c05180602052203360005260205260ff6040600020541615611ad157600a5460405163806abd8d60e01b81526020600482015260c051909182906001600160a01b031681806117c66024820160058b0161466e565b03915afa9081156115c15760c05191611ab0575b5060200151336001600160a01b0390911603611a4d575b8061187b575b50506118446000805160206152ba833981519152926118729261181f60243560048301614d53565b60064291015561183f61183336878961459c565b82602435600435614f29565b614ea8565b9360405191829161185783602435614736565b42602084015260606040840152600435956060840191614be8565b0390a360c05180f35b600a54604051636b40594760e01b8152602060048201819052909182906001600160a01b031681806118b160248201888a614be8565b03915afa9081156115c15760c05191611a13575b50156119ce5760058301916001600160401b038211610965576118f2826118ec8554614634565b85614d0c565b60c05190601f831160011461194e5792826000805160206152ba833981519152969361187296936118449660c05192611943575b50508160011b916000199060031b1c19161790555b9250926117f7565b013590508a80611926565b83825260c051602081209290601f198516905b8181106119b657509361187296936118449693600193836000805160206152ba8339815191529b981061199c575b505050811b01905561193b565b0135600019600384901b60f8161c191690558a808061198f565b91936020600181928787013581550195019201611961565b60405162461bcd60e51b815260206004820152601a60248201527f4f433a204e657720686f6c6465722044494420696e76616c69640000000000006044820152606490fd5b90506020813d602011611a45575b81611a2e60209383614560565b8101031261041657611a3f90614bdb565b876118c5565b3d9150611a21565b60405162461bcd60e51b815260206004820152603560248201527f4f433a2043616c6c6572206e6f742063757272656e742064657369676e6174656044820152746420686f6c64657220666f72207265636f7665727960581b6064820152608490fd5b611acb913d8091833e611ac38183614560565b810190614c4b565b876117da565b60405162461bcd60e51b815260206004820152602960248201527f4f433a204e6f7420686f73706974616c20726f6c6520666f72207265636f766560448201526872792073746174757360b81b6064820152608490fd5b610b1f576004602435148015611bc8575b156117f15760008051602061527a83398151915260c05152604060c05180602052203360005260205260ff604060002054166117f15760405162461bcd60e51b815260206004820152602b60248201527f4f433a204e6f74206c6f6769737469637320726f6c6520666f72207472616e7360448201526a706f72742073746174757360a81b6064820152608490fd5b50600560243514611b39565b50506000600360243514611755565b3461041657602036600319011261041657611bfc6144e2565b6000805160206152da83398151915260c05152604060c051806020522033600052602052611c3160ff60406000205416614b3e565b60018060a01b03166001600160601b0360a01b600b541617600b5560c05180f35b346104165760208060031936011261041657611c6c6144e2565b6000805160206152da83398151915260c05152604060c05180845220336000528252611c9f60ff60406000205416614b3e565b7fe5ec56207875a0b8d83e68ab614946460a4f0ace37f13577b96c5131cd6916f4918260c051526111d96001604060c0518085522001546147a5565b346104165760c05180600319360112610b625760206040516000805160206152da8339815191528152f35b34610416576020366003190112610416576004356001600160401b0381116104165760ff6020611d3b819336906004016144b5565b91908260405193849283378101600881520301902054166040519015158152f35b346104165760c05180600319360112610b6257600b546040516001600160a01b039091168152602090f35b346104165760208060031936011261041657611da16144e2565b6000805160206152da8339815191528060c05152604060c05180855220336000528352611dd560ff60406000205416614b3e565b8060c05152610eff6001604060c0518087522001546147a5565b346104165760203660031901126104165760043560c051526004602052604060c051208054611e1f811515614e66565b60405191611e3483611081816001850161466e565b60028101549260038201549160ff60048201541660405190611e6482611e5d816005870161466e565b0383614560565b600683015460405190611e7e82611e5d816007890161466e565b60088501549360405197889485602060098a01549b8c815201809b60098b0160c0515260c0519060208220915b818110611f9e5750505003611ec09087614560565b600b88015497600c015460ff16986040519b8c528b6101a06020819201528c01611ee991614704565b91611efa60408d0160ff8f16614729565b600160a01b60019003809d60081c1660608d015260808c015260a08b01611f2091614736565b89810360c08b0152611f3191614704565b9060e0890152878103610100890152611f4991614704565b916101208701528582036101408701525190818152602001939060c0515b818110611f865750505083945061016084015215156101808301520390f35b82518816865260209586019590920191600101611f67565b82546001600160a01b031684528a945060209093019260019283019201611eab565b346104165760a0366003190112610416576024356001600160401b03811161041657611ff09036906004016144b5565b90600660443510156104165760026064351015610416576084356001600160401b038111610416576120269036906004016144b5565b9190926000805160206152da83398151915260c05152604060c05180602052203360005260205261205e60ff60406000205416614b3e565b60043560c05152600460205261207f604060c0512080608052541515614e66565b6004608051019160ff835416600d8110159081610b1f576002811491821561264f575b821561263e575b5050156125fa57600a54604051636b40594760e01b8152602060048201819052909182906001600160a01b031681806120e6602482018989614be8565b03915afa9081156115c15760c051916125c0575b501561257b5760018060a01b0360095416600160a052602060ff60026080510154166040519283808093630304169d60e61b82526080600483015261215661214b6084840160a0516080510161466e565b916024840190614729565b6044356044830152606435606483015203915afa9081156115c15760c05191612541575b50156124e857600760805101916001600160401b038111610965576121a3816118ec8554614634565b60c05191601f821160011461247f5791819260c05192612474575b50508160011b916000199060031b1c19161790555b600660ff1982541617905542600660805101556121ef33614d6b565b6121fa36838561459c565b906004356000526005602052604060002090604051926122198461452a565b6004358452602084019242845260408501906006825260608601923384526080870194855260a08701528054600160401b811015610865576122619160a05182018155614773565b94909461091157855185555160a05185015560028401905191600d8310156108fb576106926122909383614d53565b518051906001600160401b038211610865576122b3826106d86003860154614634565b602090601f83116001146123fc57918060a094926004946000926123f1575b50508160011b916000199060031b1c19161760038201555b0191015180516001600160401b0381116108655761230c816118ec8554614634565b602091601f82116001146123895791819260009261237e575b50508160011b916000199060031b1c19161790555b6000805160206152ba83398151915261187261235861183f33614d6b565b936040519182916006835242602084015260606040840152600435956060840191614be8565b015190508580612325565b601f19821692846000526020600020918360009560a051965b878282106123d8575050106123bf575b505050811b01905561233a565b015160001960f88460031b161c191690558580806123b2565b84860151875590950194602094850194879350016123a2565b0151905088806122d2565b91906003840160005260206000209060009360a051945b601f198516811061245e57509183916004959360a09795601f19811610612445575b505050811b0160038201556122ea565b015160001960f88460031b161c19169055888080612435565b8183015184559285019260209283019201612413565b0135905086806121be565b83835260c0519060208220919360a051945b85601f19861682106124d257505083601f198116106124b8575b505050811b0190556121d3565b0135600019600384901b60f8161c191690558680806124ab565b8383013585559093019260209182019101612491565b60405162461bcd60e51b815260206004820152602b60248201527f4f433a204d617463682076696f6c6174657320646f6e6f7220636f6e73656e7460448201526a20706172616d657465727360a81b6064820152608490fd5b90506020813d602011612573575b8161255c60209383614560565b810103126104165761256d90614bdb565b8661217a565b3d915061254f565b60405162461bcd60e51b815260206004820152601960248201527f4f433a20526563697069656e742044494420696e76616c6964000000000000006044820152606490fd5b90506020813d6020116125f2575b816125db60209383614560565b81010312610416576125ec90614bdb565b866120fa565b3d91506125ce565b606460405162461bcd60e51b815260206004820152602060248201527f4f433a204f7267616e206e6f7420726561647920666f72206d61746368696e676044820152fd5b909150610b1f5760051486806120a9565b5060038114915060006120a2565b346104165760c05180600319360112610b6257600a546040516001600160a01b039091168152602090f35b346104165760203660031901126104165760043560c05152600460205260c05160409020805460405191828060018301906126c29161466e565b036126cd9084614560565b600281015490600381015490600481015460ff1692604051808060058501906126f59161466e565b036127009082614560565b600683015490604051928380600787019061271a9161466e565b036127259085614560565b600885015496600b86015495600c015460ff16966040519a8b9a8b526101808060208d01528b0161275591614704565b9261276660408c0160ff8316614729565b60081c6001600160a01b031660608b015260808a015261278a9060a08a0190614736565b87810360c089015261279b91614704565b9060e08701528581036101008701526127b391614704565b9261012085015261014084015215156101608301520390f35b346104165760208060031936011261041657600435908160c0515260048152604060c051206127fd81541515614e66565b600481019060ff9182815416600d811015610b1f57600803612ca75760c0518060098401918254905b818110612c6b575b505015612c0057600a8301336000528086528460406000205416612bbb573360005280865260406000209160019560ff1993878582541617905560c05192338a7f2fc03022b6fcf13227021e657a906cdfa8ef3833ea886fc44f4b7aea70bb57408680a3825492845b848110612b6c575050505050600b84015411156128b45760c05180f35b600790600c840185828254161790558254161790556006429101556128d833614d6b565b604051926128e584614545565b603284527f4d756c74692d73696720617070726f7665642c206f7267616e2073636865647581850152711b195908199bdc881d1c985b9cdc1b185b9d60721b604085015284600052600581526040600020604051906129438261452a565b86825282820142815260408301906007825260608401923384526080850196875260a085019889528054600160401b81101561086557612987918982018155614773565b94909461091157518455518684015560028301905191600d8310156108fb576106926129b39383614d53565b6003810192519283516001600160401b0394858211610865576129da826118ec8554614634565b8490601f8311600114612b045760049493929160009183612af9575b5050600019600383901b1c191690871b1790555b019351805192831161086557612a2a83612a248754614634565b87614d0c565b81601f8411600114612a935750928293918392600094612a88575b50501b916000199060031b1c19161790555b7fae795aa91c5d922ed5cb415e19c597d6782cadbfa5f3f2b6b96a70bbe1d7c26b60c05180a2808080808080610f2e565b015192508680612a45565b919083601f1981168760005284600020946000905b88838310612adf5750505010612ac6575b505050811b019055612a57565b015160001960f88460031b161c19169055848080612ab9565b858701518855909601959485019487935090810190612aa8565b015190508a806129f6565b9392918791601f1982169084600052876000209160005b89828210612b56575050968360049810612b3d575b505050811b019055612a0a565b015160001960f88460031b161c191690558a8080612b30565b838a015185558c96909401939283019201612b1b565b612b768183614f11565b60018060a01b0391549060031b1c16600052828b528360406000205416612ba6575b612ba190614ec8565b612897565b94612bb3612ba191614ec8565b959050612b98565b60405162461bcd60e51b815260048101879052601f60248201527f4f433a2043616c6c65722068617320616c726561647920617070726f766564006044820152606490fd5b60405162461bcd60e51b815260048101869052603760248201527f4f433a2043616c6c6572206973206e6f7420616e20617574686f72697a65642060448201527f617070726f76657220666f722074686973206f7267616e0000000000000000006064820152608490fd5b612c758185614f11565b905460039190911b1c6001600160a01b03163314612c9b57612c9690614ec8565b612826565b5050506001878061282e565b60405162461bcd60e51b815260048101859052601960248201527f4f433a204e6f742070656e64696e67206d756c74692d736967000000000000006044820152606490fd5b3461041657608036600319011261041657602435151560243503610416576044356001600160401b03811161041657612d299036906004016144b5565b906064356001600160401b03811161041657612d499036906004016144b5565b6000805160206152fa83398151915260c0939293515260c051806020526040812090339052602052612d8360ff604060c051205416614b83565b60043560c051526004602052604060c0512092612da284541515614e66565b600b8401546134ca575b60ff600485015416600d8110159081610b1f57600781149182156134bb575b82156134aa575b50501561344f57600a5460405163806abd8d60e01b81526020600482015260c051909182906001600160a01b03168180612e126024820160058c0161466e565b03915afa9081156115c15760c05191613436575b5060808101511515908161341f575b50156133b457612eb7600160035401938460035560405196612e568861450e565b8588526004356020890152604051612e7c81612e758160018c0161466e565b0382614560565b6040890152604051612e9581612e758160078c0161466e565b60608901523360808901524260a0890152602435151560c0890152369161459c565b60e08601528260c05152600660205260c051946040862095815187556020820151600188015560408201518051916001600160401b03831161339d57508190612f1082612f0760028c0154614634565b60028c01614d0c565b60c05190602091601f841160011461332b575060c05192613320575b50508160011b916000199060031b1c19161760028701555b60608101519081516001600160401b03811161096557612f7481612f6b60038b0154614634565b60038b01614d0c565b60c051602090601f83116001146132aa5750819060e09460c0519261329f575b50508160011b916000199060031b1c19161760038801555b6004870160018060a01b036080830151166001600160601b0360a01b82541617905560a081015160058801556006870160c0820151151560ff8019835416911617905501519485516001600160401b0381116109655761301c816130136007850154614634565b60078501614d0c565b60c051602090601f831160011461322b575090806007926130a297989960c05192613220575b50508160011b916000199060031b1c1916179101555b60088501849055602435156132165761307660095b60048701614d53565b42600686015561309961308833614d6b565b9160ff60048801541693369161459c565b91600435614f29565b6040518060c05160018501546130b781614634565b906001811690811561320157506001146131c7575b500390209060405190602435151582524260208301527f0c265fb7ac5e9584985aa3ddafc0c643ab17a09303fb6bfaf473f1ec3fa67746604060043593a4600b546001600160a01b0316801515806131be575b6131295760c05180f35b60ff60028301541691813b156104165761318c9161318191604051948594859485936302ce63df60e21b855260606004860152600761316e606487016001840161466e565b868103600319016024880152910161466e565b916044840190614729565b60c05194859103925af180156115c1576131a7575b80610f2e565b6001600160401b03811161096557604052806131a1565b5060243561311f565b90506001850160c0515260c051602081205b8282106131ea5750508101856130cc565b8054828601528493506020909101906001016131d9565b60ff19168452508015150282019050856130cc565b613076600a61306d565b015190508980613042565b60078401905260c0519760208920985b601f19841681106132875750916130a296979860019260079483601f1981161061326e575b505050811b01910155613058565b015160001960f88460031b161c19169055898080613260565b828201518a556001909901986020928301920161323b565b015190508980612f94565b60038a9593949501905260c0519160208320925b601f1985168110613308575091839160019360e09695601f198116106132ef575b505050811b016003880155612fac565b015160001960f88460031b161c191690558980806132df565b919260206001819286850151815501940192016132be565b015190508880612f2c565b60028b01905260c0516020812090945091905b601f1984168510613382576001945083601f19811610613369575b505050811b016002870155612f44565b015160001960f88460031b161c19169055888080613359565b8181015183556020948501946001909301929091019061333e565b634e487b7160e01b9052604160045260c051602490fd5b60405162461bcd60e51b815260206004820152603d60248201527f4f433a2043616c6c6572206e6f742063757272656e7420686f6c64657220287460448201527f72616e73706c616e7420686f73706974616c20444944206f776e6572290000006064820152608490fd5b602001516001600160a01b03163314905086612e35565b613449913d8091833e611ac38183614560565b86612e26565b60405162461bcd60e51b815260206004820152602d60248201527f4f433a204f7267616e206e6f7420696e20737461746520666f72207472616e7360448201526c706c616e74206f7574636f6d6560981b6064820152608490fd5b909150610b1f576008148680612dd2565b5060c051600582149250612dcb565b60ff600c85015416612dac5760405162461bcd60e51b815260206004820152602860248201527f4f433a204f7267616e2072656c65617365206e6f74206d756c74692d73696720604482015267185c1c1c9bdd995960c21b6064820152608490fd5b3461041657602080600319360112610416576135466144e2565b6000805160206152da83398151915260c0515260c0518083526040812090339052825261357b60ff604060c051205416614b3e565b60008051602061529a833981519152918260c051526135a56001604060c0518085522001546147a5565b8260c0515260c05191828252604083209060018060a01b0316809352815260c05160ff6040822054166135d85760c05180f35b83905260c05190818152826040832092525260c051916040832060ff1981541690557ff6391f5c32d9c69d2a47ea670b442974b53935d1edc7fd64eb21e047a839171b339380a480808080610f2e565b34610416576040366003190112610416576136416144f8565b336001600160a01b0382160361365d57610f2e90600435614ab9565b60405162461bcd60e51b815260206004820152602f60248201527f416363657373436f6e74726f6c3a2063616e206f6e6c792072656e6f756e636560448201526e103937b632b9903337b91039b2b63360891b6064820152608490fd5b346104165760403660031901126104165760206136e06136d86144f8565b600435615190565b6040519015158152f35b34610416576020366003190112610416576004356001600160401b0381116104165761371a9036906004016144b5565b9060ff6040518383823760208185810160088152030190205416156137655781602092604051928337600790820190815281900382019020546040516001600160a01b039091168152f35b60405162461bcd60e51b815260206004820152601c60248201527f4f433a20446f6e6f7220444944206e6f742072656769737465726564000000006044820152606490fd5b34610416576040366003190112610416576004356137c66144f8565b8160c051526137e16001604060c051806020522001546147a5565b8160c0515260c0519081602052604082209060018060a01b031680925260205260c05160ff604082205416156138175760c05180f35b82905260c051806020528160408220915260205260c0519160408320600160ff198254161790557f2f8788117e7eff1d82e926ec794901d17c78024a50270940304540a733656f0d339380a4808080610f2e565b346104165760203660031901126104165760043560c0515260206001604060c051808452200154604051908152f35b3461041657602060ff6138c3826138b0366145d3565b8160405193828580945193849201614611565b8101600881520301902054166040519015158152f35b3461041657602080600319360112610416576138f36144e2565b6000805160206152da83398151915260c0515260c0518083526040812090339052825261392860ff604060c051205416614b3e565b6000805160206152fa833981519152918260c051526139526001604060c0518085522001546147a5565b8260c0515260c05191828252604083209060018060a01b0316809352815260c05160ff604082205416156139865760c05180f35b83905260c05190818152826040832092525260c0519160408320600160ff198254161790557f2f8788117e7eff1d82e926ec794901d17c78024a50270940304540a733656f0d339380a480808080610f2e565b3461041657602080600319360112610416576139f36144e2565b6000805160206152da833981519152918260c0515260c05180825260408120903390528152613a2a60ff604060c051205416614b3e565b8260c051526135a56001604060c0518085522001546147a5565b346104165760c05180600319360112610b6257602060405160008051602061529a8339815191528152f35b346104165760c05180600319360112610b625760206040517fe5ec56207875a0b8d83e68ab614946460a4f0ace37f13577b96c5131cd6916f48152f35b34610416576060366003190112610416576004356001600160401b03811161041657613adc9036906004016144b5565b906009602435101561041657604480356001600160401b03811161041657613b089036906004016144b5565b6000805160206152fa83398151915260c0939293515260c051806020526040812090339052602052613b4260ff604060c051205416614b83565b600a54604051636b40594760e01b81526020600482018190526001600160a01b0390921693918180613b78602482018b8b614be8565b0381875afa9081156115c15760c05191614428575b50156143ec5760ff6040518787823760208189810160088152030190205416156143915760405163806abd8d60e01b81526020600482015260c051909384908180613bdc60248201888b614be8565b03915afa9283156115c15760c05193614376575b50608083015115158061435f575b1561430d576020830151336001600160a01b03909116036142bf57600954604080516331c87a6960e21b815260048101919091529060609082906001600160a01b03168180613c508782018d8d614be8565b613c5f60248301602435614729565b03915afa9081156115c15760c0519161426a575b5015614200575060016002540192836002558360c05152600460205260c0519260408420938585556001600160401b03881161339d5750613cc487613cbb6001870154614634565b60018701614d0c565b60c0519087601f811160011461418f57613d2f9260c05191614184575b508860011b906000198a60031b1c19161760018601555b6002850180546020909201516001600160a81b031990921660243560ff161760089290921b610100600160a81b0316919091179055565b42600384015560048301805460ff191690556001600160401b03821161096557613d6982613d606005860154614634565b60058601614d0c565b60c05190601f831160011461411157918091600c949360c05192614106575b50508160011b916000199060031b1c19161760058201555b426006820155613db36007820154614634565b601f81116140df575b506000600782015560c051806008830155600b8201550160ff198154169055613de433614d6b565b92604051938460408101106001600160401b036040870111176109655760408501604052601c85527f4f7267616e207265676973746572656420627920686f73706974616c0000000060208601528260c051526005602052604060c051209060405195613e508761452a565b8487526020870192428452604088019060c0518252606089019233845260808a0194855260a08a01528054600160401b81101561096557613e9691600182018155614773565b9490946140c8578851855551600185015560028401905191600d831015610b1f57610692613ec49383614d53565b518051906001600160401b03821161096557613ee7826106d86003860154614634565b60c05190602091601f84116001146140535750918060a0949260049460c05192614048575b50508160011b916000199060031b1c19161760038201555b01940151928351946001600160401b0386116109655785613f51602097613f4b8454614634565b84614d0c565b60c0518790601f8311600114613fe157508190869760c05192613fd6575b50508160011b916000199060031b1c19161790555b816040519283928337810160c05181520390207f4cc93c3a07cc313e6ffef6c443c65410b51fa4b069a5936a64f19fa7558a6ab060408051613fc881602435614729565b4287820152a3604051908152f35b015190508880613f6f565b83905260c051888120929790601f198916905b8181106140315750916001939189899a9410614018575b505050811b019055613f84565b015160001960f88460031b161c1916905588808061400b565b92938a600181928786015181550195019301613ff4565b015190508980613f0c565b60038501905260c051602081209291905b601f19851681106140b057509260a0949260019260049583601f19811610614097575b505050811b016003820155613f24565b015160001960f88460031b161c19169055898080614087565b91926020600181928685015181550194019201614064565b634e487b7160e01b60c05152602460c05180600452fd5b614100906007830160c05152601f602060c05120910160051c810190614cf5565b85613dbc565b013590508780613d88565b60058401825260c0519160208320925b601f198516811061416c5750918391600193600c9695601f19811610614152575b505050811b016005820155613da0565b0135600019600384901b60f8161c19169055878080614142565b90926020600181928686013581550194019101614121565b905087013589613ce1565b5060018501825260c0516020812090925b601f198a1684106141e857613d2f935089601f198116106141ce575b5050600188811b016001860155613cf8565b88013560001960038b901b60f8161c1916905588806141bc565b888101358255602093840193600190920191016141a0565b6084907f4f433a20436f6e73656e74206e6f7420666f756e6420666f72206f7267616e206040519162461bcd60e51b835260206004840152603e60248401528201527f74797065206f7220646f6e6174696f6e206e6f74207065726d697474656400006064820152fd5b90506060813d6060116142b7575b8161428560609383614560565b810103126104165761429681614bdb565b90600660208201511015610416576040600291015110156104165787613c73565b3d9150614278565b6084907f4f433a2043616c6c6572206e6f7420686f73706974616c20444944206f776e656040519162461bcd60e51b83526020600484015260216024840152820152603960f91b6064820152fd5b6084907f4f433a20486f73706974616c2044494420696e76616c69642f6e6f7420486f736040519162461bcd60e51b83526020600484015260256024840152820152641c1a5d185b60da1b6064820152fd5b5060408301516005811015610b1f57600114613bfe565b61438a91933d8091833e611ac38183614560565b9186613bf0565b6084907f4f433a20446f6e6f722070726f66696c65206e6f7420726567697374657265646040519162461bcd60e51b835260206004840152602e60248401528201526d1037b71027b933b0b721b430b4b760911b6064820152fd5b6064907413d0ce88111bdb9bdc88111251081a5b9d985b1a59605a1b6040519162461bcd60e51b83526020600484015260156024840152820152fd5b90506020813d60201161445a575b8161444360209383614560565b810103126104165761445490614bdb565b87613b8d565b3d9150614436565b346107ef5760203660031901126107ef576004359063ffffffff60e01b82168092036107ef57602091637965db0b60e01b81149081156144a4575b5015158152f35b6301ffc9a760e01b1490508361449d565b9181601f840112156107ef578235916001600160401b0383116107ef57602083818601950101116107ef57565b600435906001600160a01b03821682036107ef57565b602435906001600160a01b03821682036107ef57565b61010081019081106001600160401b0382111761086557604052565b60c081019081106001600160401b0382111761086557604052565b606081019081106001600160401b0382111761086557604052565b90601f801991011681019081106001600160401b0382111761086557604052565b6001600160401b03811161086557601f01601f191660200190565b9291926145a882614581565b916145b66040519384614560565b8294818452818301116107ef578281602093846000960137010152565b60206003198201126107ef57600435906001600160401b0382116107ef57806023830112156107ef5781602461460e9360040135910161459c565b90565b60005b8381106146245750506000910152565b8181015183820152602001614614565b90600182811c92168015614664575b602083101461464e57565b634e487b7160e01b600052602260045260246000fd5b91607f1691614643565b906000929180549161467f83614634565b9182825260019384811690816000146146e157506001146146a1575b50505050565b90919394506000526020928360002092846000945b8386106146cd57505050500101903880808061469b565b8054858701830152940193859082016146b6565b9294505050602093945060ff191683830152151560051b0101903880808061469b565b9060209161471d81518092818552858086019101614611565b601f01601f1916010190565b9060098210156108fb5752565b90600d8210156108fb5752565b9181601f840112156107ef578235916001600160401b0383116107ef576020808501948460051b0101116107ef57565b805482101561478f576000526005602060002091020190600090565b634e487b7160e01b600052603260045260246000fd5b600090808252602090828252604092838120338252835260ff8482205416156147ce5750505050565b338451926147db84614545565b602a84528484019086368337845115614aa55760308253845192600193841015614a91576078602187015360295b848111614a2757506149e557865192608084018481106001600160401b038211176149d1578852604284528684019460603687378451156149bd576030865384518210156149bd5790607860218601536041915b81831161494f5750505061490d576149099386936148ed936148de6048946148b59a519a8b957f416363657373436f6e74726f6c3a206163636f756e74200000000000000000008c8801525180926037880190614611565b8401917001034b99036b4b9b9b4b733903937b6329607d1b603784015251809386840190614611565b01036028810187520185614560565b5192839262461bcd60e51b845260048401526024830190614704565b0390fd5b60648587519062461bcd60e51b825280600483015260248201527f537472696e67733a20686578206c656e67746820696e73756666696369656e746044820152fd5b909192600f811660108110156149a9576f181899199a1a9b1b9c1cb0b131b232b360811b901a61497f8588614b2d565b5360041c9280156149955760001901919061485d565b634e487b7160e01b82526011600452602482fd5b634e487b7160e01b83526032600452602483fd5b634e487b7160e01b81526032600452602490fd5b634e487b7160e01b86526041600452602486fd5b60648688519062461bcd60e51b825280600483015260248201527f537472696e67733a20686578206c656e67746820696e73756666696369656e746044820152fd5b90600f81166010811015614a7d576f181899199a1a9b1b9c1cb0b131b232b360811b901a614a558389614b2d565b5360041c908015614a695760001901614809565b634e487b7160e01b86526011600452602486fd5b634e487b7160e01b87526032600452602487fd5b634e487b7160e01b85526032600452602485fd5b634e487b7160e01b84526032600452602484fd5b9060009180835282602052604083209160018060a01b03169182845260205260ff604084205416614ae957505050565b80835282602052604083208284526020526040832060ff1981541690557ff6391f5c32d9c69d2a47ea670b442974b53935d1edc7fd64eb21e047a839171b339380a4565b90815181101561478f570160200190565b15614b4557565b60405162461bcd60e51b815260206004820152601660248201527521b0b63632b91034b9903737ba1030b71030b236b4b760511b6044820152606490fd5b15614b8a57565b60405162461bcd60e51b8152602060048201526024808201527f43616c6c6572206973206e6f7420616e20617574686f72697a656420686f73706044820152631a5d185b60e21b6064820152608490fd5b519081151582036107ef57565b908060209392818452848401376000828201840152601f01601f1916010190565b81601f820112156107ef578051614c1f81614581565b92614c2d6040519485614560565b818452602082840101116107ef5761460e9160208085019101614611565b6020818303126107ef5780516001600160401b03918282116107ef57019060c0828403126107ef576040519260c08401848110838211176108655760405282519182116107ef57614c9d918301614c09565b825260208101516001600160a01b03811681036107ef57602083015260408101519060058210156107ef5760a091604084015260608101516060840152614ce660808201614bdb565b6080840152015160a082015290565b818110614d00575050565b60008155600101614cf5565b9190601f8111614d1b57505050565b614d47926000526020600020906020601f840160051c83019310614d49575b601f0160051c0190614cf5565b565b9091508190614d3a565b90600d8110156108fb5760ff80198354169116179055565b600a546040516218b46b60e21b81526001600160a01b03928316600482015291600091829184916024918391165afa918215614e59578192614e0d575b5050805115614db45790565b60405162461bcd60e51b815260206004820152602b60248201527f4f433a204163746f7220455448206164647265737320686173206e6f2072656760448201526a1a5cdd195c99590811125160aa1b6064820152608490fd5b909291503d8084833e614e208183614560565b810190602081830312614e55578051906001600160401b038211614e5157614e4a93945001614c09565b3880614da8565b8480fd5b8380fd5b50604051903d90823e3d90fd5b15614e6d57565b60405162461bcd60e51b815260206004820152601360248201527213d0ce8813dc99d85b881b9bdd08199bdd5b99606a1b6044820152606490fd5b614ec090602060405192828480945193849201614611565b810103902090565b6000198114614ed75760010190565b634e487b7160e01b600052601160045260246000fd5b919081101561478f5760051b0190565b356001600160a01b03811681036107ef5790565b805482101561478f5760005260206000200190600090565b9190600083815260209360058552604082209260405191614f498361452a565b82528582014281526040830191600d81101561516857825260608301903382526080840196875260a084019889528554600160401b8110156149d157614f96906001978882018155614773565b94909461517c575184555185840155600283019151600d81101561516857906106928392614fc394614d53565b6003810193519384516001600160401b039586821161515457614fea826118ec8554614634565b8790601f83116001146150ef576004949392918691836150e4575b5050600019600383901b1c191690861b1790555b01945180519384116150d057615039846150338854614634565b88614d0c565b8491601f8511600114615071579394508492919083615066575b50501b916000199060031b1c1916179055565b015192503880615053565b86815285812093958591601f198316915b888383106150b6575050501061509d575b505050811b019055565b015160001960f88460031b161c19169055388080615093565b858701518855909601959485019487935090810190615082565b634e487b7160e01b82526041600452602482fd5b015190503880615005565b9392918691601f198216908488528a882091885b8c82821061513e575050968360049810615125575b505050811b019055615019565b015160001960f88460031b161c19169055388080615118565b838a015185558b96909401939283019201615103565b634e487b7160e01b85526041600452602485fd5b634e487b7160e01b85526021600452602485fd5b634e487b7160e01b86526004869052602486fd5b90600091825260046020526040822090815415615224578283600984018054915b8281106151e2575b505050156151dd576001600160a01b03168252600a01602052604090205460ff1690565b505090565b6151ec8183614f11565b905460039190911b1c6001600160a01b03908116908616146152165761521190614ec8565b6151b1565b5050505060013880806151b9565b60405162461bcd60e51b815260206004820152602760248201527f4f433a204f7267616e206e6f7420666f756e6420666f72206d756c74692d73696044820152666720636865636b60c81b6064820152608490fdfeded9b5e0e0e3a2b3f09a0bc36ec64b9bf7a7c2319f3c4d9cff5ce48714257b2120b5f7ac978e5d6199de06401411960dfa81d2f762655f6206bdc61d46fc19e6b891f839ade5328f6fcd6989cf23a415b0d6f35126ff564297d3df41742ec0b3a49807205ce4d355092ef5a8a18f56e8913cf4a201fbe287825b095693c21775c8f5b4140cca307cd927e59cbeea8291bffeee228fc677f0fa059aef7b4dd8d5a26469706673582212201a877f2603a52b41cb522e44d7933c4589c55669d610d5382ec5c55602a7730664736f6c634300081100332f8788117e7eff1d82e926ec794901d17c78024a50270940304540a733656f0d",
  "immutableReferences": {},
  "source": "// SPDX-License-Identifier: MIT\r\npragma solidity ^0.8.17;\r\n\r\nimport \"./AccessControlRoles.sol\"; // Ensure this path is correct\r\nimport \"@openzeppelin/contracts/utils/Counters.sol\";\r\nimport \"./interfaces/IConsentManager.sol\"; // Ensure these interface paths are correct\r\nimport \"./interfaces/IDIDRegistry.sol\";\r\nimport \"./interfaces/IImpactLedger.sol\";\r\n\r\ncontract OrganChain is AccessControlRoles {\r\n    using Counters for Counters.Counter;\r\n    Counters.Counter private _organIds;\r\n    Counters.Counter private _transplantLogIds;\r\n\r\n    // --- Enums (Keep as they are) ---\r\n    enum RecipientGroupPreference { Unspecified, Local, National, International, Research } // Legacy\r\n    enum OrganStatus { Registered, RecoveryInProgress, Recovered, AwaitingTransport, InTransport, DeliveredToHospital, Matched, TransplantScheduled, TransplantPendingMultiSig, TransplantCompleted, TransplantFailed, Discarded, Other }\r\n    enum OrganType { Heart, Lung, Liver, Kidney, Pancreas, Intestine, Cornea, Skin, Bone }\r\n\r\n    // --- Structs (Keep as they are) ---\r\n    struct Organ {\r\n        uint256 id;\r\n        string donorDID;\r\n        OrganType organType;\r\n        address recoveryHospitalDIDOwner; // Owner of the recovery hospital's DID\r\n        uint256 recoveryTimestamp; // Timestamp of organ registration or recovery by hospital\r\n        OrganStatus status;\r\n        string currentHolderIdentifierDID; // DID of the current entity responsible (hospital, logistics)\r\n        uint256 lastUpdatedTimestamp;\r\n        string matchedRecipientDID;\r\n        uint256 transplantLogId; // Link to the TransplantLog entry\r\n        address[] multiSigApprovers;\r\n        mapping(address => bool) multiSigConfirmations;\r\n        uint256 requiredMultiSigApprovals;\r\n        bool multiSigApproved;\r\n    }\r\n\r\n    struct AuditEvent {\r\n        uint256 organId;\r\n        uint256 timestamp;\r\n        OrganStatus statusChange;\r\n        address performedByEthAddress; // ETH address of the msg.sender\r\n        string performedByDID; // DID of the actor\r\n        string notes;\r\n    }\r\n\r\n    struct TransplantLog {\r\n        uint256 id;\r\n        uint256 organId;\r\n        string donorDID;\r\n        string recipientDID;\r\n        address transplantHospitalDIDOwner; // ETH address of the transplant hospital DID owner\r\n        uint256 completionTimestamp;\r\n        bool successful;\r\n        string anonymizedRecipientInfo; // e.g., \"Adult Male, Blood Type O+\"\r\n    }\r\n\r\n    // --- Mappings (Keep as they are, plus new ones for donor profile) ---\r\n    mapping(uint256 => Organ) public organs;\r\n    mapping(uint256 => AuditEvent[]) public organAuditTrail;\r\n    mapping(uint256 => TransplantLog) public transplantLogs;\r\n\r\n    // New mappings for simple donor profile registration\r\n    mapping(string => address) public donorDIDToEthAddress;\r\n    mapping(string => bool) public isDonorDIDRegistered;\r\n\r\n    // --- Interfaces (Keep as they are) ---\r\n    IConsentManager public consentManager;\r\n    IDIDRegistry public didRegistry;\r\n    IImpactLedger public impactLedger;\r\n\r\n    // --- Events (Keep as they are, plus new one) ---\r\n    event OrganRegisteredForDID(string indexed donorDID, uint256 indexed organId, OrganType organType, uint256 timestamp);\r\n    event OrganStatusUpdated(uint256 indexed organId, OrganStatus newStatus, string indexed performedByDID, uint256 timestamp, string notes);\r\n    event TransplantRecorded(uint256 indexed transplantLogId, uint256 indexed organId, string indexed donorDID, bool successful, uint256 timestamp);\r\n    event MultiSigInitiated(uint256 indexed organId, address[] approvers, uint256 requiredApprovals);\r\n    event MultiSigApproved(uint256 indexed organId, address indexed approver);\r\n    event OrganReleasedForTransplant(uint256 indexed organId);\r\n\r\n    // New event for donor profile registration\r\n    event DonorProfileRegistered(string indexed donorDID, address indexed donorEthAddress, uint256 timestamp);\r\n\r\n\r\n    // --- Constructor (Keep as it is) ---\r\n    constructor(address _consentManagerAddress, address _didRegistryAddress) AccessControlRoles() {\r\n        require(_consentManagerAddress != address(0), \"OC: Invalid ConsentManager\");\r\n        require(_didRegistryAddress != address(0), \"OC: Invalid DIDRegistry\");\r\n        consentManager = IConsentManager(_consentManagerAddress);\r\n        didRegistry = IDIDRegistry(_didRegistryAddress);\r\n        // Grant DEFAULT_ADMIN_ROLE to the deployer (msg.sender)\r\n        // This is typically handled in AccessControlRoles or OpenZeppelin's AccessControl constructor\r\n    }\r\n\r\n    // --- setImpactLedgerAddress (Keep as it is) ---\r\n    function setImpactLedgerAddress(address _ledgerAddress) external onlyAdminRole {\r\n        impactLedger = IImpactLedger(_ledgerAddress);\r\n    }\r\n\r\n    // --- _getActorDID (Keep as it is) ---\r\n    function _getActorDID(address _actorEthAddress) internal view returns (string memory) {\r\n        string memory actorDID = didRegistry.getDIDByOwner(_actorEthAddress);\r\n        require(bytes(actorDID).length > 0, \"OC: Actor ETH address has no registered DID\");\r\n        return actorDID;\r\n    }\r\n\r\n    // --- NEW FUNCTION: registerDonorProfileOnChain ---\r\n    /**\r\n     * @notice Registers a donor's profile (DID and ETH address) on the chain.\r\n     * @dev Can be called by an admin or a designated donor registrar.\r\n     * @param _donorDID The Decentralized Identifier of the donor.\r\n     * @param _donorEthAddress The Ethereum address associated with the donor for rewards/identification.\r\n     */\r\n    function registerDonorProfileOnChain(string calldata _donorDID, address _donorEthAddress)\r\n        external\r\n        onlyAdminRole // Or a new role like DONOR_REGISTRAR_ROLE, or make it public if desired\r\n    {\r\n        require(bytes(_donorDID).length > 0, \"OC: Donor DID cannot be empty\");\r\n        require(_donorEthAddress != address(0), \"OC: Donor ETH address cannot be zero\");\r\n        require(!isDonorDIDRegistered[_donorDID], \"OC: This Donor DID is already registered\");\r\n        // Optional: Check if _donorEthAddress is already linked to another DID via didRegistry\r\n        // string memory existingDIDForAddress = didRegistry.getDIDByOwner(_donorEthAddress);\r\n        // require(bytes(existingDIDForAddress).length == 0, \"OC: ETH address already linked to another DID\");\r\n\r\n        donorDIDToEthAddress[_donorDID] = _donorEthAddress;\r\n        isDonorDIDRegistered[_donorDID] = true;\r\n\r\n        emit DonorProfileRegistered(_donorDID, _donorEthAddress, block.timestamp);\r\n    }\r\n\r\n    // --- registerOrgan (Keep as it is, with your replacement code) ---\r\n    function registerOrgan(\r\n        string calldata _donorDID,\r\n        OrganType _organType,\r\n        string calldata _recoveryHospitalDID\r\n    ) external onlyHospitalRole returns (uint256) {\r\n        require(didRegistry.isDIDValid(_donorDID), \"OC: Donor DID invalid\");\r\n        // Ensure donor profile is registered first if that's a requirement\r\n        require(isDonorDIDRegistered[_donorDID], \"OC: Donor profile not registered on OrganChain\");\r\n\r\n        IDIDRegistry.IdentityRecord memory hospitalRecord = didRegistry.getDIDRecord(_recoveryHospitalDID);\r\n        require(hospitalRecord.isValid && hospitalRecord.idType == IDIDRegistry.IdentityType.Hospital, \"OC: Hospital DID invalid/not Hospital\");\r\n        require(hospitalRecord.ownerAddress == _msgSender(), \"OC: Caller not hospital DID owner\");\r\n\r\n        (bool canDonate,,) = consentManager.getConsent(_donorDID, _organType);\r\n        require(canDonate, \"OC: Consent not found for organ type or donation not permitted\");\r\n\r\n        _organIds.increment();\r\n        uint256 newOrganId = _organIds.current();\r\n\r\n        Organ storage newOrgan = organs[newOrganId]; // Get a storage pointer\r\n\r\n        newOrgan.id = newOrganId;\r\n        newOrgan.donorDID = _donorDID;\r\n        newOrgan.organType = _organType;\r\n        newOrgan.recoveryHospitalDIDOwner = hospitalRecord.ownerAddress;\r\n        newOrgan.recoveryTimestamp = block.timestamp; // Or a timestamp provided by hospital\r\n        newOrgan.status = OrganStatus.Registered;\r\n        newOrgan.currentHolderIdentifierDID = _recoveryHospitalDID;\r\n        newOrgan.lastUpdatedTimestamp = block.timestamp;\r\n        newOrgan.matchedRecipientDID = \"\";\r\n        newOrgan.transplantLogId = 0;\r\n        newOrgan.requiredMultiSigApprovals = 0;\r\n        newOrgan.multiSigApproved = false;\r\n\r\n        _logAuditEvent(newOrganId, OrganStatus.Registered, _getActorDID(_msgSender()), \"Organ registered by hospital\");\r\n        emit OrganRegisteredForDID(_donorDID, newOrganId, _organType, block.timestamp);\r\n        return newOrganId;\r\n    }\r\n\r\n    // --- updateOrganStatusByDID (Keep as it is) ---\r\n    function updateOrganStatusByDID(uint256 _organId, OrganStatus _newStatus, string calldata _notes, string calldata _newHolderDID)\r\n        external\r\n        // Add role checks appropriate for status changes if not covered by holder check\r\n    {\r\n        Organ storage organ = organs[_organId];\r\n        require(organ.id != 0, \"OC: Organ not found\");\r\n\r\n        string memory actorDID = _getActorDID(_msgSender());\r\n\r\n        // Example more granular role/holder checks:\r\n        if (_newStatus == OrganStatus.Recovered || _newStatus == OrganStatus.AwaitingTransport) {\r\n             require(hasRole(HOSPITAL_ROLE, _msgSender()), \"OC: Not hospital role for recovery status\");\r\n             IDIDRegistry.IdentityRecord memory currentHolderRecord = didRegistry.getDIDRecord(organ.currentHolderIdentifierDID);\r\n             require(currentHolderRecord.ownerAddress == _msgSender(), \"OC: Caller not current designated holder for recovery\");\r\n        } else if (_newStatus == OrganStatus.InTransport || _newStatus == OrganStatus.DeliveredToHospital) {\r\n             require(hasRole(LOGISTICS_ROLE, _msgSender()), \"OC: Not logistics role for transport status\");\r\n             // Optionally, check if msgSender is owner of organ.currentHolderIdentifierDID if it's a logistics DID\r\n        }\r\n        // Add checks for other statuses like TransplantCompleted (should be by transplant hospital)\r\n\r\n        if (bytes(_newHolderDID).length > 0) {\r\n            require(didRegistry.isDIDValid(_newHolderDID), \"OC: New holder DID invalid\");\r\n            organ.currentHolderIdentifierDID = _newHolderDID;\r\n        }\r\n        organ.status = _newStatus;\r\n        organ.lastUpdatedTimestamp = block.timestamp;\r\n        _logAuditEvent(_organId, _newStatus, actorDID, _notes);\r\n        emit OrganStatusUpdated(_organId, _newStatus, actorDID, block.timestamp, _notes);\r\n    }\r\n\r\n\r\n    // --- setOrganAsMatchedWithConsentCheck (Keep as it is) ---\r\n    function setOrganAsMatchedWithConsentCheck(\r\n        uint256 _organId,\r\n        string calldata _recipientDID,\r\n        IConsentManager.RecipientScope _matchScope,\r\n        IConsentManager.OrganUsage _matchUsage,\r\n        string calldata _notes\r\n    ) external onlyAdminRole { // Or perhaps a HOSPITAL_ROLE with checks\r\n        Organ storage organ = organs[_organId];\r\n        require(organ.id != 0, \"OC: Organ not found\");\r\n        require(organ.status == OrganStatus.Recovered || organ.status == OrganStatus.AwaitingTransport || organ.status == OrganStatus.DeliveredToHospital, \"OC: Organ not ready for matching\");\r\n        require(didRegistry.isDIDValid(_recipientDID), \"OC: Recipient DID invalid\");\r\n\r\n        bool consentCompatible = consentManager.checkConsentCompatibility(organ.donorDID, organ.organType, _matchScope, _matchUsage);\r\n        require(consentCompatible, \"OC: Match violates donor consent parameters\");\r\n\r\n        organ.matchedRecipientDID = _recipientDID;\r\n        organ.status = OrganStatus.Matched;\r\n        organ.lastUpdatedTimestamp = block.timestamp;\r\n        _logAuditEvent(_organId, OrganStatus.Matched, _getActorDID(_msgSender()), _notes); // Use _getActorDID if admin has one\r\n        // _logAuditEvent(_organId, OrganStatus.Matched, \"System/Admin\", _notes); // Or keep as System/Admin\r\n        emit OrganStatusUpdated(_organId, OrganStatus.Matched, _getActorDID(_msgSender()), block.timestamp, _notes);\r\n    }\r\n\r\n    // --- initiateMultiSigRelease (Keep as it is) ---\r\n    function initiateMultiSigRelease(uint256 _organId, address[] calldata _approvers, uint256 _requiredApprovals)\r\n        external onlyAdminRole {\r\n        Organ storage organ = organs[_organId];\r\n        require(organ.id != 0, \"OC: Organ not found\");\r\n        require(organ.status == OrganStatus.Matched || organ.status == OrganStatus.TransplantScheduled, \"OC: Organ not in correct state for multi-sig initiation\"); // Allow if already scheduled too\r\n        require(_approvers.length >= _requiredApprovals && _requiredApprovals > 0, \"OC: Invalid approvers/reqs\");\r\n\r\n        for(uint i=0; i < _approvers.length; i++){\r\n            require(hasRole(REGULATOR_ROLE, _approvers[i]) || hasRole(ADMIN_ROLE, _approvers[i]), \"OC: Approver lacks required role\");\r\n        }\r\n\r\n        organ.multiSigApprovers = _approvers;\r\n        organ.requiredMultiSigApprovals = _requiredApprovals;\r\n        organ.multiSigApproved = false; // Reset approval status\r\n        for (uint i = 0; i < organ.multiSigApprovers.length; i++) { // Clear previous confirmations\r\n            organ.multiSigConfirmations[organ.multiSigApprovers[i]] = false;\r\n        }\r\n        organ.status = OrganStatus.TransplantPendingMultiSig;\r\n        organ.lastUpdatedTimestamp = block.timestamp;\r\n        _logAuditEvent(_organId, OrganStatus.TransplantPendingMultiSig, _getActorDID(_msgSender()), \"Multi-sig for transplant release initiated\");\r\n        emit MultiSigInitiated(_organId, _approvers, _requiredApprovals);\r\n    }\r\n\r\n    // --- approveOrganRelease (Keep as it is) ---\r\n    function approveOrganRelease(uint256 _organId) external { // No role restriction, relies on approver list\r\n        Organ storage organ = organs[_organId];\r\n        require(organ.id != 0, \"OC: Organ not found\");\r\n        require(organ.status == OrganStatus.TransplantPendingMultiSig, \"OC: Not pending multi-sig\");\r\n\r\n        bool isApprover = false;\r\n        for (uint i = 0; i < organ.multiSigApprovers.length; i++) {\r\n            if (organ.multiSigApprovers[i] == _msgSender()) {\r\n                isApprover = true;\r\n                break;\r\n            }\r\n        }\r\n        require(isApprover, \"OC: Caller is not an authorized approver for this organ\");\r\n        require(!organ.multiSigConfirmations[_msgSender()], \"OC: Caller has already approved\");\r\n\r\n        organ.multiSigConfirmations[_msgSender()] = true;\r\n        emit MultiSigApproved(_organId, _msgSender());\r\n\r\n        uint256 confirmationCount = 0;\r\n        for (uint i = 0; i < organ.multiSigApprovers.length; i++) {\r\n            if (organ.multiSigConfirmations[organ.multiSigApprovers[i]]) {\r\n                confirmationCount++;\r\n            }\r\n        }\r\n\r\n        if (confirmationCount >= organ.requiredMultiSigApprovals) {\r\n            organ.multiSigApproved = true;\r\n            organ.status = OrganStatus.TransplantScheduled; // Status after successful multi-sig\r\n            organ.lastUpdatedTimestamp = block.timestamp;\r\n            _logAuditEvent(_organId, OrganStatus.TransplantScheduled, _getActorDID(_msgSender()), \"Multi-sig approved, organ scheduled for transplant\");\r\n            emit OrganReleasedForTransplant(_organId);\r\n        }\r\n    }\r\n\r\n    // --- recordTransplantOutcome (Keep as it is) ---\r\n    function recordTransplantOutcome(\r\n        uint256 _organId,\r\n        bool _successful,\r\n        string calldata _anonymizedRecipientInfo,\r\n        string calldata _notes\r\n    ) external onlyHospitalRole { // Should be transplant hospital\r\n        Organ storage organ = organs[_organId];\r\n        require(organ.id != 0, \"OC: Organ not found\");\r\n\r\n        if (organ.requiredMultiSigApprovals > 0) {\r\n           require(organ.multiSigApproved, \"OC: Organ release not multi-sig approved\");\r\n        }\r\n        // Allow outcome recording from various relevant states\r\n        require(organ.status == OrganStatus.TransplantScheduled || organ.status == OrganStatus.DeliveredToHospital || organ.status == OrganStatus.TransplantPendingMultiSig /* if multi-sig was bypassed for emergency */, \"OC: Organ not in state for transplant outcome\");\r\n\r\n        // Verify caller is the owner of the currentHolderIdentifierDID (expected to be transplant hospital DID)\r\n        IDIDRegistry.IdentityRecord memory hospitalRecord = didRegistry.getDIDRecord(organ.currentHolderIdentifierDID);\r\n        require(hospitalRecord.isValid && hospitalRecord.ownerAddress == _msgSender(), \"OC: Caller not current holder (transplant hospital DID owner)\");\r\n\r\n        _transplantLogIds.increment();\r\n        uint256 newLogId = _transplantLogIds.current();\r\n\r\n        transplantLogs[newLogId] = TransplantLog({\r\n            id: newLogId,\r\n            organId: _organId,\r\n            donorDID: organ.donorDID,\r\n            recipientDID: organ.matchedRecipientDID,\r\n            transplantHospitalDIDOwner: _msgSender(),\r\n            completionTimestamp: block.timestamp,\r\n            successful: _successful,\r\n            anonymizedRecipientInfo: _anonymizedRecipientInfo\r\n        });\r\n\r\n        organ.transplantLogId = newLogId;\r\n        organ.status = _successful ? OrganStatus.TransplantCompleted : OrganStatus.TransplantFailed;\r\n        organ.lastUpdatedTimestamp = block.timestamp;\r\n\r\n        string memory actorDID = _getActorDID(_msgSender());\r\n        _logAuditEvent(_organId, organ.status, actorDID, _notes);\r\n        emit TransplantRecorded(newLogId, _organId, organ.donorDID, _successful, block.timestamp);\r\n\r\n        if (address(impactLedger) != address(0) && _successful) {\r\n            impactLedger.recordSuccessfulTransplant(organ.donorDID, organ.matchedRecipientDID, organ.organType);\r\n        }\r\n    }\r\n\r\n    // --- verifyEligibilityWithZKP (Keep as it is) ---\r\n    function verifyEligibilityWithZKP(string calldata _recipientDID, bytes calldata _zkProof, uint256[] calldata _publicInputs)\r\n        external view returns (bool) {\r\n        require(didRegistry.isDIDValid(_recipientDID), \"OC: Recipient DID for ZKP invalid\");\r\n        // Actual ZKP verification logic would go here\r\n        return (_zkProof.length > 0 && _publicInputs.length > 0); // Placeholder\r\n    }\r\n\r\n    // --- _logAuditEvent (Keep as it is) ---\r\n    function _logAuditEvent(uint256 _organId, OrganStatus _statusChange, string memory _actorDID, string memory _notes) internal {\r\n        organAuditTrail[_organId].push(AuditEvent({\r\n            organId: _organId,\r\n            timestamp: block.timestamp,\r\n            statusChange: _statusChange,\r\n            performedByEthAddress: _msgSender(),\r\n            performedByDID: _actorDID,\r\n            notes: _notes\r\n        }));\r\n    }\r\n\r\n    // --- Getter Functions (Keep as they are) ---\r\n    function getOrganDetails(uint256 _organId)\r\n        external view\r\n        returns (\r\n            uint256 id,\r\n            string memory donorDID,\r\n            OrganType organType,\r\n            address recoveryHospitalDIDOwner,\r\n            uint256 recoveryTimestamp,\r\n            OrganStatus status,\r\n            string memory currentHolderIdentifierDID,\r\n            uint256 lastUpdatedTimestamp,\r\n            string memory matchedRecipientDID,\r\n            uint256 transplantLogId,\r\n            address[] memory multiSigApprovers,\r\n            uint256 requiredMultiSigApprovals,\r\n            bool multiSigApproved\r\n        )\r\n    {\r\n        Organ storage organToReturn = organs[_organId];\r\n        require(organToReturn.id != 0, \"OC: Organ not found\");\r\n\r\n        id = organToReturn.id;\r\n        donorDID = organToReturn.donorDID;\r\n        organType = organToReturn.organType;\r\n        recoveryHospitalDIDOwner = organToReturn.recoveryHospitalDIDOwner;\r\n        recoveryTimestamp = organToReturn.recoveryTimestamp;\r\n        status = organToReturn.status;\r\n        currentHolderIdentifierDID = organToReturn.currentHolderIdentifierDID;\r\n        lastUpdatedTimestamp = organToReturn.lastUpdatedTimestamp;\r\n        matchedRecipientDID = organToReturn.matchedRecipientDID;\r\n        transplantLogId = organToReturn.transplantLogId;\r\n        multiSigApprovers = organToReturn.multiSigApprovers;\r\n        requiredMultiSigApprovals = organToReturn.requiredMultiSigApprovals;\r\n        multiSigApproved = organToReturn.multiSigApproved;\r\n    }\r\n\r\n    function getOrganMultiSigConfirmation(uint256 _organId, address _approver)\r\n        external view returns (bool isConfirmed)\r\n    {\r\n        Organ storage organToCheck = organs[_organId];\r\n        require(organToCheck.id != 0, \"OC: Organ not found for multi-sig check\");\r\n        bool isAnApprover = false;\r\n        for(uint i = 0; i < organToCheck.multiSigApprovers.length; i++) {\r\n            if (organToCheck.multiSigApprovers[i] == _approver) {\r\n                isAnApprover = true;\r\n                break;\r\n            }\r\n        }\r\n        if (!isAnApprover) {\r\n            return false;\r\n        }\r\n        return organToCheck.multiSigConfirmations[_approver];\r\n    }\r\n\r\n    function getTransplantLog(uint256 _logId) external view returns (TransplantLog memory) {\r\n        require(transplantLogs[_logId].id != 0, \"OC: Log not found\");\r\n        return transplantLogs[_logId];\r\n    }\r\n\r\n    // --- Additional Getters for new donor profile mappings (optional but useful) ---\r\n    function getDonorEthAddress(string calldata _donorDID) external view returns (address) {\r\n        require(isDonorDIDRegistered[_donorDID], \"OC: Donor DID not registered\");\r\n        return donorDIDToEthAddress[_donorDID];\r\n    }\r\n\r\n    function checkDonorDIDRegistered(string calldata _donorDID) external view returns (bool) {\r\n        return isDonorDIDRegistered[_donorDID];\r\n    }\r\n}",
  "sourcePath": "C:\\Users\\tejas\\HopeConnect\\hopeconnect-blockchain\\contracts\\OrganChain.sol",
  "compiler": {
    "name": "solc",
    "version": "0.8.17+commit.8df45f5f.Emscripten.clang"
  },
  "schemaVersion": "3.4.16",
  "updatedAt": "2025-05-16T23:21:02.423Z",
  "networkType": "ethereum",
  "devdoc": {
    "kind": "dev",
    "methods": {
      "getRoleAdmin(bytes32)": {
        "details": "Returns the admin role that controls `role`. See {grantRole} and {revokeRole}. To change a role's admin, use {_setRoleAdmin}."
      },
      "grantRole(bytes32,address)": {
        "details": "Grants `role` to `account`. If `account` had not been already granted `role`, emits a {RoleGranted} event. Requirements: - the caller must have ``role``'s admin role. May emit a {RoleGranted} event."
      },
      "hasRole(bytes32,address)": {
        "details": "Returns `true` if `account` has been granted `role`."
      },
      "registerDonorProfileOnChain(string,address)": {
        "details": "Can be called by an admin or a designated donor registrar.",
        "params": {
          "_donorDID": "The Decentralized Identifier of the donor.",
          "_donorEthAddress": "The Ethereum address associated with the donor for rewards/identification."
        }
      },
      "renounceRole(bytes32,address)": {
        "details": "Revokes `role` from the calling account. Roles are often managed via {grantRole} and {revokeRole}: this function's purpose is to provide a mechanism for accounts to lose their privileges if they are compromised (such as when a trusted device is misplaced). If the calling account had been revoked `role`, emits a {RoleRevoked} event. Requirements: - the caller must be `account`. May emit a {RoleRevoked} event."
      },
      "revokeRole(bytes32,address)": {
        "details": "Revokes `role` from `account`. If `account` had been granted `role`, emits a {RoleRevoked} event. Requirements: - the caller must have ``role``'s admin role. May emit a {RoleRevoked} event."
      },
      "supportsInterface(bytes4)": {
        "details": "See {IERC165-supportsInterface}."
      }
    },
    "version": 1
  },
  "userdoc": {
    "kind": "user",
    "methods": {
      "registerDonorProfileOnChain(string,address)": {
        "notice": "Registers a donor's profile (DID and ETH address) on the chain."
      }
    },
    "version": 1
  }
}